{
  "_format": "hh-sol-artifact-1",
  "contractName": "Fweb3TokenFaucet",
  "sourceName": "contracts/Fweb3TokenFaucet.sol",
  "abi": [
    {
      "inputs": [
        {
          "internalType": "contract ERC20",
          "name": "_erc20Token",
          "type": "address"
        },
        {
          "internalType": "uint256",
          "name": "_dripAmount",
          "type": "uint256"
        },
        {
          "internalType": "uint256",
          "name": "_decimals",
          "type": "uint256"
        }
      ],
      "stateMutability": "nonpayable",
      "type": "constructor"
    },
    {
      "anonymous": false,
      "inputs": [
        {
          "indexed": false,
          "internalType": "address",
          "name": "",
          "type": "address"
        },
        {
          "indexed": false,
          "internalType": "uint256",
          "name": "",
          "type": "uint256"
        }
      ],
      "name": "DrippedErc20",
      "type": "event"
    },
    {
      "anonymous": false,
      "inputs": [
        {
          "indexed": true,
          "internalType": "address",
          "name": "previousOwner",
          "type": "address"
        },
        {
          "indexed": true,
          "internalType": "address",
          "name": "newOwner",
          "type": "address"
        }
      ],
      "name": "OwnershipTransferred",
      "type": "event"
    },
    {
      "anonymous": false,
      "inputs": [
        {
          "indexed": false,
          "internalType": "address",
          "name": "",
          "type": "address"
        },
        {
          "indexed": false,
          "internalType": "uint256",
          "name": "",
          "type": "uint256"
        }
      ],
      "name": "ReceivedEth",
      "type": "event"
    },
    {
      "anonymous": false,
      "inputs": [
        {
          "indexed": true,
          "internalType": "bytes32",
          "name": "role",
          "type": "bytes32"
        },
        {
          "indexed": true,
          "internalType": "bytes32",
          "name": "previousAdminRole",
          "type": "bytes32"
        },
        {
          "indexed": true,
          "internalType": "bytes32",
          "name": "newAdminRole",
          "type": "bytes32"
        }
      ],
      "name": "RoleAdminChanged",
      "type": "event"
    },
    {
      "anonymous": false,
      "inputs": [
        {
          "indexed": true,
          "internalType": "bytes32",
          "name": "role",
          "type": "bytes32"
        },
        {
          "indexed": true,
          "internalType": "address",
          "name": "account",
          "type": "address"
        },
        {
          "indexed": true,
          "internalType": "address",
          "name": "sender",
          "type": "address"
        }
      ],
      "name": "RoleGranted",
      "type": "event"
    },
    {
      "anonymous": false,
      "inputs": [
        {
          "indexed": true,
          "internalType": "bytes32",
          "name": "role",
          "type": "bytes32"
        },
        {
          "indexed": true,
          "internalType": "address",
          "name": "account",
          "type": "address"
        },
        {
          "indexed": true,
          "internalType": "address",
          "name": "sender",
          "type": "address"
        }
      ],
      "name": "RoleRevoked",
      "type": "event"
    },
    {
      "inputs": [],
      "name": "ADMIN_ROLE",
      "outputs": [
        {
          "internalType": "bytes32",
          "name": "",
          "type": "bytes32"
        }
      ],
      "stateMutability": "view",
      "type": "function"
    },
    {
      "inputs": [],
      "name": "DEFAULT_ADMIN_ROLE",
      "outputs": [
        {
          "internalType": "bytes32",
          "name": "",
          "type": "bytes32"
        }
      ],
      "stateMutability": "view",
      "type": "function"
    },
    {
      "inputs": [
        {
          "internalType": "address",
          "name": "forWhom",
          "type": "address"
        }
      ],
      "name": "clearTimeout",
      "outputs": [],
      "stateMutability": "nonpayable",
      "type": "function"
    },
    {
      "inputs": [],
      "name": "decimals",
      "outputs": [
        {
          "internalType": "uint256",
          "name": "",
          "type": "uint256"
        }
      ],
      "stateMutability": "view",
      "type": "function"
    },
    {
      "inputs": [
        {
          "internalType": "address payable",
          "name": "to",
          "type": "address"
        }
      ],
      "name": "drainErc20",
      "outputs": [],
      "stateMutability": "nonpayable",
      "type": "function"
    },
    {
      "inputs": [
        {
          "internalType": "address payable",
          "name": "to",
          "type": "address"
        }
      ],
      "name": "drainEth",
      "outputs": [],
      "stateMutability": "nonpayable",
      "type": "function"
    },
    {
      "inputs": [],
      "name": "dripAmount",
      "outputs": [
        {
          "internalType": "uint256",
          "name": "",
          "type": "uint256"
        }
      ],
      "stateMutability": "view",
      "type": "function"
    },
    {
      "inputs": [
        {
          "internalType": "address payable",
          "name": "to",
          "type": "address"
        }
      ],
      "name": "dripFweb3",
      "outputs": [],
      "stateMutability": "nonpayable",
      "type": "function"
    },
    {
      "inputs": [],
      "name": "erc20Token",
      "outputs": [
        {
          "internalType": "contract ERC20",
          "name": "",
          "type": "address"
        }
      ],
      "stateMutability": "view",
      "type": "function"
    },
    {
      "inputs": [],
      "name": "faucetDisabled",
      "outputs": [
        {
          "internalType": "bool",
          "name": "",
          "type": "bool"
        }
      ],
      "stateMutability": "view",
      "type": "function"
    },
    {
      "inputs": [
        {
          "internalType": "bytes32",
          "name": "role",
          "type": "bytes32"
        }
      ],
      "name": "getRoleAdmin",
      "outputs": [
        {
          "internalType": "bytes32",
          "name": "",
          "type": "bytes32"
        }
      ],
      "stateMutability": "view",
      "type": "function"
    },
    {
      "inputs": [
        {
          "internalType": "bytes32",
          "name": "role",
          "type": "bytes32"
        },
        {
          "internalType": "address",
          "name": "account",
          "type": "address"
        }
      ],
      "name": "grantRole",
      "outputs": [],
      "stateMutability": "nonpayable",
      "type": "function"
    },
    {
      "inputs": [
        {
          "internalType": "bytes32",
          "name": "role",
          "type": "bytes32"
        },
        {
          "internalType": "address",
          "name": "account",
          "type": "address"
        }
      ],
      "name": "hasRole",
      "outputs": [
        {
          "internalType": "bool",
          "name": "",
          "type": "bool"
        }
      ],
      "stateMutability": "view",
      "type": "function"
    },
    {
      "inputs": [],
      "name": "holderLimit",
      "outputs": [
        {
          "internalType": "uint256",
          "name": "",
          "type": "uint256"
        }
      ],
      "stateMutability": "view",
      "type": "function"
    },
    {
      "inputs": [],
      "name": "owner",
      "outputs": [
        {
          "internalType": "address",
          "name": "",
          "type": "address"
        }
      ],
      "stateMutability": "view",
      "type": "function"
    },
    {
      "inputs": [],
      "name": "renounceOwnership",
      "outputs": [],
      "stateMutability": "nonpayable",
      "type": "function"
    },
    {
      "inputs": [
        {
          "internalType": "bytes32",
          "name": "role",
          "type": "bytes32"
        },
        {
          "internalType": "address",
          "name": "account",
          "type": "address"
        }
      ],
      "name": "renounceRole",
      "outputs": [],
      "stateMutability": "nonpayable",
      "type": "function"
    },
    {
      "inputs": [
        {
          "internalType": "bytes32",
          "name": "role",
          "type": "bytes32"
        },
        {
          "internalType": "address",
          "name": "account",
          "type": "address"
        }
      ],
      "name": "revokeRole",
      "outputs": [],
      "stateMutability": "nonpayable",
      "type": "function"
    },
    {
      "inputs": [
        {
          "internalType": "bool",
          "name": "val",
          "type": "bool"
        }
      ],
      "name": "setDisableFaucet",
      "outputs": [],
      "stateMutability": "nonpayable",
      "type": "function"
    },
    {
      "inputs": [
        {
          "internalType": "uint256",
          "name": "amount",
          "type": "uint256"
        },
        {
          "internalType": "uint256",
          "name": "_decimals",
          "type": "uint256"
        }
      ],
      "name": "setDripAmount",
      "outputs": [],
      "stateMutability": "nonpayable",
      "type": "function"
    },
    {
      "inputs": [
        {
          "internalType": "uint256",
          "name": "limit",
          "type": "uint256"
        }
      ],
      "name": "setHolderLimit",
      "outputs": [],
      "stateMutability": "nonpayable",
      "type": "function"
    },
    {
      "inputs": [
        {
          "internalType": "bool",
          "name": "shouldBeSingleUse",
          "type": "bool"
        }
      ],
      "name": "setSingleUse",
      "outputs": [],
      "stateMutability": "nonpayable",
      "type": "function"
    },
    {
      "inputs": [
        {
          "internalType": "uint256",
          "name": "newTimeout",
          "type": "uint256"
        }
      ],
      "name": "setTimeout",
      "outputs": [],
      "stateMutability": "nonpayable",
      "type": "function"
    },
    {
      "inputs": [],
      "name": "singleUse",
      "outputs": [
        {
          "internalType": "bool",
          "name": "",
          "type": "bool"
        }
      ],
      "stateMutability": "view",
      "type": "function"
    },
    {
      "inputs": [
        {
          "internalType": "bytes4",
          "name": "interfaceId",
          "type": "bytes4"
        }
      ],
      "name": "supportsInterface",
      "outputs": [
        {
          "internalType": "bool",
          "name": "",
          "type": "bool"
        }
      ],
      "stateMutability": "view",
      "type": "function"
    },
    {
      "inputs": [],
      "name": "timeout",
      "outputs": [
        {
          "internalType": "uint256",
          "name": "",
          "type": "uint256"
        }
      ],
      "stateMutability": "view",
      "type": "function"
    },
    {
      "inputs": [
        {
          "internalType": "address",
          "name": "newOwner",
          "type": "address"
        }
      ],
      "name": "transferOwnership",
      "outputs": [],
      "stateMutability": "nonpayable",
      "type": "function"
    },
    {
      "inputs": [],
      "name": "useHolderLimit",
      "outputs": [
        {
          "internalType": "bool",
          "name": "",
          "type": "bool"
        }
      ],
      "stateMutability": "view",
      "type": "function"
    },
    {
      "stateMutability": "payable",
      "type": "receive"
    }
  ],
  "bytecode": "0x60806040523480156200001157600080fd5b50604051620032533803806200325383398181016040528101906200003791906200043b565b620000576200004b6200014460201b60201c565b6200014c60201b60201c565b6200006c6000801b336200021060201b60201c565b6200009e7fa49807205ce4d355092ef5a8a18f56e8913cf4a201fbe287825b095693c21775336200021060201b60201c565b82600260006101000a81548173ffffffffffffffffffffffffffffffffffffffff021916908373ffffffffffffffffffffffffffffffffffffffff16021790555080600a620000ee91906200061a565b82620000fb91906200066b565b6003819055508060048190555060006005819055506001600660016101000a81548160ff021916908315150217905550681043561a8829300000600781905550505050620006cc565b600033905090565b60008060009054906101000a900473ffffffffffffffffffffffffffffffffffffffff169050816000806101000a81548173ffffffffffffffffffffffffffffffffffffffff021916908373ffffffffffffffffffffffffffffffffffffffff1602179055508173ffffffffffffffffffffffffffffffffffffffff168173ffffffffffffffffffffffffffffffffffffffff167f8be0079c531659141344cd1fd0a4f28419497f9722a3daafe3b4186f6b6457e060405160405180910390a35050565b6200022282826200022660201b60201c565b5050565b6200023882826200031760201b60201c565b6200031357600180600084815260200190815260200160002060000160008373ffffffffffffffffffffffffffffffffffffffff1673ffffffffffffffffffffffffffffffffffffffff16815260200190815260200160002060006101000a81548160ff021916908315150217905550620002b86200014460201b60201c565b73ffffffffffffffffffffffffffffffffffffffff168173ffffffffffffffffffffffffffffffffffffffff16837f2f8788117e7eff1d82e926ec794901d17c78024a50270940304540a733656f0d60405160405180910390a45b5050565b60006001600084815260200190815260200160002060000160008373ffffffffffffffffffffffffffffffffffffffff1673ffffffffffffffffffffffffffffffffffffffff16815260200190815260200160002060009054906101000a900460ff16905092915050565b600080fd5b600073ffffffffffffffffffffffffffffffffffffffff82169050919050565b6000620003b48262000387565b9050919050565b6000620003c882620003a7565b9050919050565b620003da81620003bb565b8114620003e657600080fd5b50565b600081519050620003fa81620003cf565b92915050565b6000819050919050565b620004158162000400565b81146200042157600080fd5b50565b60008151905062000435816200040a565b92915050565b60008060006060848603121562000457576200045662000382565b5b60006200046786828701620003e9565b93505060206200047a8682870162000424565b92505060406200048d8682870162000424565b9150509250925092565b7f4e487b7100000000000000000000000000000000000000000000000000000000600052601160045260246000fd5b60008160011c9050919050565b6000808291508390505b60018511156200052557808604811115620004fd57620004fc62000497565b5b60018516156200050d5780820291505b80810290506200051d85620004c6565b9450620004dd565b94509492505050565b60008262000540576001905062000613565b8162000550576000905062000613565b81600181146200056957600281146200057457620005aa565b600191505062000613565b60ff84111562000589576200058862000497565b5b8360020a915084821115620005a357620005a262000497565b5b5062000613565b5060208310610133831016604e8410600b8410161715620005e45782820a905083811115620005de57620005dd62000497565b5b62000613565b620005f38484846001620004d3565b925090508184048111156200060d576200060c62000497565b5b81810290505b9392505050565b6000620006278262000400565b9150620006348362000400565b9250620006637fffffffffffffffffffffffffffffffffffffffffffffffffffffffffffffffff84846200052e565b905092915050565b6000620006788262000400565b9150620006858362000400565b9250817fffffffffffffffffffffffffffffffffffffffffffffffffffffffffffffffff0483118215151615620006c157620006c062000497565b5b828202905092915050565b612b7780620006dc6000396000f3fe6080604052600436106101bb5760003560e01c806375b238fc116100ec5780639811572c1161008a578063d547741f11610064578063d547741f14610616578063e28c81721461063f578063e928890c14610668578063f2fde38b14610693576101fb565b80639811572c14610597578063a217fddf146105c2578063c58a34cc146105ed576101fb565b80638cf59bc7116100c65780638cf59bc7146104dd5780638d80c591146105065780638da5cb5b1461052f57806391d148541461055a576101fb565b806375b238fc1461045c57806376e1032a146104875780638a13eea7146104b2576101fb565b806335a1529b1161015957806363d459f91161013357806363d459f9146103c85780636c40bc15146103f157806370dea79a1461041a578063715018a614610445576101fb565b806335a1529b1461034957806336568abe14610374578063506e817d1461039d576101fb565b8063248a9ca311610195578063248a9ca31461028f57806325fe628e146102cc5780632f2ff15d146102f5578063313ce5671461031e576101fb565b806301ffc9a71461020057806306f91d591461023d5780631d691fb514610266576101fb565b366101fb577f52a6cdf67c40ce333b3d846e4e143db87f71dd7935612a4cafcf6ba76047ca1f33346040516101f1929190611c9e565b60405180910390a1005b600080fd5b34801561020c57600080fd5b5061022760048036038101906102229190611d24565b6106bc565b6040516102349190611d6c565b60405180910390f35b34801561024957600080fd5b50610264600480360381019061025f9190611db3565b610736565b005b34801561027257600080fd5b5061028d60048036038101906102889190611e0c565b610786565b005b34801561029b57600080fd5b506102b660048036038101906102b19190611e6f565b6107d6565b6040516102c39190611eab565b60405180910390f35b3480156102d857600080fd5b506102f360048036038101906102ee9190611f04565b6107f6565b005b34801561030157600080fd5b5061031c60048036038101906103179190611f5d565b610e52565b005b34801561032a57600080fd5b50610333610e7b565b6040516103409190611f9d565b60405180910390f35b34801561035557600080fd5b5061035e610e81565b60405161036b9190611f9d565b60405180910390f35b34801561038057600080fd5b5061039b60048036038101906103969190611f5d565b610e87565b005b3480156103a957600080fd5b506103b2610f0a565b6040516103bf9190611d6c565b60405180910390f35b3480156103d457600080fd5b506103ef60048036038101906103ea9190611f04565b610f1d565b005b3480156103fd57600080fd5b5061041860048036038101906104139190611fb8565b611140565b005b34801561042657600080fd5b5061042f6111e5565b60405161043c9190611f9d565b60405180910390f35b34801561045157600080fd5b5061045a6111eb565b005b34801561046857600080fd5b50610471611273565b60405161047e9190611eab565b60405180910390f35b34801561049357600080fd5b5061049c611297565b6040516104a99190611d6c565b60405180910390f35b3480156104be57600080fd5b506104c76112aa565b6040516104d49190612057565b60405180910390f35b3480156104e957600080fd5b5061050460048036038101906104ff9190611f04565b6112d0565b005b34801561051257600080fd5b5061052d60048036038101906105289190612072565b611396565b005b34801561053b57600080fd5b50610544611411565b604051610551919061209f565b60405180910390f35b34801561056657600080fd5b50610581600480360381019061057c9190611f5d565b61143a565b60405161058e9190611d6c565b60405180910390f35b3480156105a357600080fd5b506105ac6114a5565b6040516105b99190611f9d565b60405180910390f35b3480156105ce57600080fd5b506105d76114ab565b6040516105e49190611eab565b60405180910390f35b3480156105f957600080fd5b50610614600480360381019061060f9190611db3565b6114b2565b005b34801561062257600080fd5b5061063d60048036038101906106389190611f5d565b6114ef565b005b34801561064b57600080fd5b5061066660048036038101906106619190611e0c565b611518565b005b34801561067457600080fd5b5061067d611568565b60405161068a9190611d6c565b60405180910390f35b34801561069f57600080fd5b506106ba60048036038101906106b59190612072565b61157b565b005b60007f7965db0b000000000000000000000000000000000000000000000000000000007bffffffffffffffffffffffffffffffffffffffffffffffffffffffff1916827bffffffffffffffffffffffffffffffffffffffffffffffffffffffff1916148061072f575061072e82611673565b5b9050919050565b7fa49807205ce4d355092ef5a8a18f56e8913cf4a201fbe287825b095693c21775610768816107636116dd565b6116e5565b670de0b6b3a76400008261077c91906120e9565b6007819055505050565b7fa49807205ce4d355092ef5a8a18f56e8913cf4a201fbe287825b095693c217756107b8816107b36116dd565b6116e5565b81600660006101000a81548160ff0219169083151502179055505050565b600060016000838152602001908152602001600020600101549050919050565b7fa49807205ce4d355092ef5a8a18f56e8913cf4a201fbe287825b095693c21775610828816108236116dd565b6116e5565b600660009054906101000a900460ff1615610878576040517f08c379a000000000000000000000000000000000000000000000000000000000815260040161086f906121a0565b60405180910390fd5b600354600260009054906101000a900473ffffffffffffffffffffffffffffffffffffffff1673ffffffffffffffffffffffffffffffffffffffff166370a08231306040518263ffffffff1660e01b81526004016108d6919061209f565b60206040518083038186803b1580156108ee57600080fd5b505afa158015610902573d6000803e3d6000fd5b505050506040513d601f19601f8201168201806040525081019061092691906121d5565b1015610967576040517f08c379a000000000000000000000000000000000000000000000000000000000815260040161095e9061224e565b60405180910390fd5b600754600260009054906101000a900473ffffffffffffffffffffffffffffffffffffffff1673ffffffffffffffffffffffffffffffffffffffff166370a08231846040518263ffffffff1660e01b81526004016109c5919061228f565b60206040518083038186803b1580156109dd57600080fd5b505afa1580156109f1573d6000803e3d6000fd5b505050506040513d601f19601f82011682018060405250810190610a1591906121d5565b10610a55576040517f08c379a0000000000000000000000000000000000000000000000000000000008152600401610a4c906122f6565b60405180910390fd5b600660019054906101000a900460ff1615610af857600960008373ffffffffffffffffffffffffffffffffffffffff1673ffffffffffffffffffffffffffffffffffffffff16815260200190815260200160002060009054906101000a900460ff1615610af7576040517f08c379a0000000000000000000000000000000000000000000000000000000008152600401610aee90612362565b60405180910390fd5b5b600060055414610b855742600a60008473ffffffffffffffffffffffffffffffffffffffff1673ffffffffffffffffffffffffffffffffffffffff168152602001908152602001600020541115610b84576040517f08c379a0000000000000000000000000000000000000000000000000000000008152600401610b7b906123ce565b60405180910390fd5b5b600354600260009054906101000a900473ffffffffffffffffffffffffffffffffffffffff1673ffffffffffffffffffffffffffffffffffffffff166370a08231306040518263ffffffff1660e01b8152600401610be3919061209f565b60206040518083038186803b158015610bfb57600080fd5b505afa158015610c0f573d6000803e3d6000fd5b505050506040513d601f19601f82011682018060405250810190610c3391906121d5565b1015610c74576040517f08c379a0000000000000000000000000000000000000000000000000000000008152600401610c6b9061224e565b60405180910390fd5b6000600260009054906101000a900473ffffffffffffffffffffffffffffffffffffffff1673ffffffffffffffffffffffffffffffffffffffff1663a9059cbb846003546040518363ffffffff1660e01b8152600401610cd59291906123ee565b602060405180830381600087803b158015610cef57600080fd5b505af1158015610d03573d6000803e3d6000fd5b505050506040513d601f19601f82011682018060405250810190610d27919061242c565b905080610d69576040517f08c379a0000000000000000000000000000000000000000000000000000000008152600401610d60906124a5565b60405180910390fd5b60055442610d7791906124c5565b600a60008573ffffffffffffffffffffffffffffffffffffffff1673ffffffffffffffffffffffffffffffffffffffff168152602001908152602001600020819055506001600960008573ffffffffffffffffffffffffffffffffffffffff1673ffffffffffffffffffffffffffffffffffffffff16815260200190815260200160002060006101000a81548160ff0219169083151502179055507fed4684b97478365fe7dfc618288e64c6179fdde8bf4d1cd04dc0d3335ee556f633600354604051610e45929190611c9e565b60405180910390a1505050565b610e5b826107d6565b610e6c81610e676116dd565b6116e5565b610e768383611782565b505050565b60045481565b60035481565b610e8f6116dd565b73ffffffffffffffffffffffffffffffffffffffff168173ffffffffffffffffffffffffffffffffffffffff1614610efc576040517f08c379a0000000000000000000000000000000000000000000000000000000008152600401610ef39061258d565b60405180910390fd5b610f068282611862565b5050565b600860009054906101000a900460ff1681565b610f256116dd565b73ffffffffffffffffffffffffffffffffffffffff16610f43611411565b73ffffffffffffffffffffffffffffffffffffffff1614610f99576040517f08c379a0000000000000000000000000000000000000000000000000000000008152600401610f90906125f9565b60405180910390fd5b6000600260009054906101000a900473ffffffffffffffffffffffffffffffffffffffff1673ffffffffffffffffffffffffffffffffffffffff166370a08231306040518263ffffffff1660e01b8152600401610ff6919061209f565b60206040518083038186803b15801561100e57600080fd5b505afa158015611022573d6000803e3d6000fd5b505050506040513d601f19601f8201168201806040525081019061104691906121d5565b90506000600260009054906101000a900473ffffffffffffffffffffffffffffffffffffffff1673ffffffffffffffffffffffffffffffffffffffff1663a9059cbb84846040518363ffffffff1660e01b81526004016110a79291906123ee565b602060405180830381600087803b1580156110c157600080fd5b505af11580156110d5573d6000803e3d6000fd5b505050506040513d601f19601f820116820180604052508101906110f9919061242c565b90508061113b576040517f08c379a000000000000000000000000000000000000000000000000000000000815260040161113290612665565b60405180910390fd5b505050565b6111486116dd565b73ffffffffffffffffffffffffffffffffffffffff16611166611411565b73ffffffffffffffffffffffffffffffffffffffff16146111bc576040517f08c379a00000000000000000000000000000000000000000000000000000000081526004016111b3906125f9565b60405180910390fd5b8060048190555080600a6111d091906127b8565b826111db91906120e9565b6003819055505050565b60055481565b6111f36116dd565b73ffffffffffffffffffffffffffffffffffffffff16611211611411565b73ffffffffffffffffffffffffffffffffffffffff1614611267576040517f08c379a000000000000000000000000000000000000000000000000000000000815260040161125e906125f9565b60405180910390fd5b6112716000611944565b565b7fa49807205ce4d355092ef5a8a18f56e8913cf4a201fbe287825b095693c2177581565b600660019054906101000a900460ff1681565b600260009054906101000a900473ffffffffffffffffffffffffffffffffffffffff1681565b6112d86116dd565b73ffffffffffffffffffffffffffffffffffffffff166112f6611411565b73ffffffffffffffffffffffffffffffffffffffff161461134c576040517f08c379a0000000000000000000000000000000000000000000000000000000008152600401611343906125f9565b60405180910390fd5b8073ffffffffffffffffffffffffffffffffffffffff166108fc479081150290604051600060405180830381858888f19350505050158015611392573d6000803e3d6000fd5b5050565b7fa49807205ce4d355092ef5a8a18f56e8913cf4a201fbe287825b095693c217756113c8816113c36116dd565b6116e5565b6000600a60008473ffffffffffffffffffffffffffffffffffffffff1673ffffffffffffffffffffffffffffffffffffffff168152602001908152602001600020819055505050565b60008060009054906101000a900473ffffffffffffffffffffffffffffffffffffffff16905090565b60006001600084815260200190815260200160002060000160008373ffffffffffffffffffffffffffffffffffffffff1673ffffffffffffffffffffffffffffffffffffffff16815260200190815260200160002060009054906101000a900460ff16905092915050565b60075481565b6000801b81565b7fa49807205ce4d355092ef5a8a18f56e8913cf4a201fbe287825b095693c217756114e4816114df6116dd565b6116e5565b816005819055505050565b6114f8826107d6565b611509816115046116dd565b6116e5565b6115138383611862565b505050565b7fa49807205ce4d355092ef5a8a18f56e8913cf4a201fbe287825b095693c2177561154a816115456116dd565b6116e5565b81600660016101000a81548160ff0219169083151502179055505050565b600660009054906101000a900460ff1681565b6115836116dd565b73ffffffffffffffffffffffffffffffffffffffff166115a1611411565b73ffffffffffffffffffffffffffffffffffffffff16146115f7576040517f08c379a00000000000000000000000000000000000000000000000000000000081526004016115ee906125f9565b60405180910390fd5b600073ffffffffffffffffffffffffffffffffffffffff168173ffffffffffffffffffffffffffffffffffffffff161415611667576040517f08c379a000000000000000000000000000000000000000000000000000000000815260040161165e90612875565b60405180910390fd5b61167081611944565b50565b60007f01ffc9a7000000000000000000000000000000000000000000000000000000007bffffffffffffffffffffffffffffffffffffffffffffffffffffffff1916827bffffffffffffffffffffffffffffffffffffffffffffffffffffffff1916149050919050565b600033905090565b6116ef828261143a565b61177e576117148173ffffffffffffffffffffffffffffffffffffffff166014611a08565b6117228360001c6020611a08565b6040516020016117339291906129a7565b6040516020818303038152906040526040517f08c379a00000000000000000000000000000000000000000000000000000000081526004016117759190612a2b565b60405180910390fd5b5050565b61178c828261143a565b61185e57600180600084815260200190815260200160002060000160008373ffffffffffffffffffffffffffffffffffffffff1673ffffffffffffffffffffffffffffffffffffffff16815260200190815260200160002060006101000a81548160ff0219169083151502179055506118036116dd565b73ffffffffffffffffffffffffffffffffffffffff168173ffffffffffffffffffffffffffffffffffffffff16837f2f8788117e7eff1d82e926ec794901d17c78024a50270940304540a733656f0d60405160405180910390a45b5050565b61186c828261143a565b156119405760006001600084815260200190815260200160002060000160008373ffffffffffffffffffffffffffffffffffffffff1673ffffffffffffffffffffffffffffffffffffffff16815260200190815260200160002060006101000a81548160ff0219169083151502179055506118e56116dd565b73ffffffffffffffffffffffffffffffffffffffff168173ffffffffffffffffffffffffffffffffffffffff16837ff6391f5c32d9c69d2a47ea670b442974b53935d1edc7fd64eb21e047a839171b60405160405180910390a45b5050565b60008060009054906101000a900473ffffffffffffffffffffffffffffffffffffffff169050816000806101000a81548173ffffffffffffffffffffffffffffffffffffffff021916908373ffffffffffffffffffffffffffffffffffffffff1602179055508173ffffffffffffffffffffffffffffffffffffffff168173ffffffffffffffffffffffffffffffffffffffff167f8be0079c531659141344cd1fd0a4f28419497f9722a3daafe3b4186f6b6457e060405160405180910390a35050565b606060006002836002611a1b91906120e9565b611a2591906124c5565b67ffffffffffffffff811115611a3e57611a3d612a4d565b5b6040519080825280601f01601f191660200182016040528015611a705781602001600182028036833780820191505090505b5090507f300000000000000000000000000000000000000000000000000000000000000081600081518110611aa857611aa7612a7c565b5b60200101907effffffffffffffffffffffffffffffffffffffffffffffffffffffffffffff1916908160001a9053507f780000000000000000000000000000000000000000000000000000000000000081600181518110611b0c57611b0b612a7c565b5b60200101907effffffffffffffffffffffffffffffffffffffffffffffffffffffffffffff1916908160001a90535060006001846002611b4c91906120e9565b611b5691906124c5565b90505b6001811115611bf6577f3031323334353637383961626364656600000000000000000000000000000000600f861660108110611b9857611b97612a7c565b5b1a60f81b828281518110611baf57611bae612a7c565b5b60200101907effffffffffffffffffffffffffffffffffffffffffffffffffffffffffffff1916908160001a905350600485901c945080611bef90612aab565b9050611b59565b5060008414611c3a576040517f08c379a0000000000000000000000000000000000000000000000000000000008152600401611c3190612b21565b60405180910390fd5b8091505092915050565b600073ffffffffffffffffffffffffffffffffffffffff82169050919050565b6000611c6f82611c44565b9050919050565b611c7f81611c64565b82525050565b6000819050919050565b611c9881611c85565b82525050565b6000604082019050611cb36000830185611c76565b611cc06020830184611c8f565b9392505050565b600080fd5b60007fffffffff0000000000000000000000000000000000000000000000000000000082169050919050565b611d0181611ccc565b8114611d0c57600080fd5b50565b600081359050611d1e81611cf8565b92915050565b600060208284031215611d3a57611d39611cc7565b5b6000611d4884828501611d0f565b91505092915050565b60008115159050919050565b611d6681611d51565b82525050565b6000602082019050611d816000830184611d5d565b92915050565b611d9081611c85565b8114611d9b57600080fd5b50565b600081359050611dad81611d87565b92915050565b600060208284031215611dc957611dc8611cc7565b5b6000611dd784828501611d9e565b91505092915050565b611de981611d51565b8114611df457600080fd5b50565b600081359050611e0681611de0565b92915050565b600060208284031215611e2257611e21611cc7565b5b6000611e3084828501611df7565b91505092915050565b6000819050919050565b611e4c81611e39565b8114611e5757600080fd5b50565b600081359050611e6981611e43565b92915050565b600060208284031215611e8557611e84611cc7565b5b6000611e9384828501611e5a565b91505092915050565b611ea581611e39565b82525050565b6000602082019050611ec06000830184611e9c565b92915050565b6000611ed182611c44565b9050919050565b611ee181611ec6565b8114611eec57600080fd5b50565b600081359050611efe81611ed8565b92915050565b600060208284031215611f1a57611f19611cc7565b5b6000611f2884828501611eef565b91505092915050565b611f3a81611c64565b8114611f4557600080fd5b50565b600081359050611f5781611f31565b92915050565b60008060408385031215611f7457611f73611cc7565b5b6000611f8285828601611e5a565b9250506020611f9385828601611f48565b9150509250929050565b6000602082019050611fb26000830184611c8f565b92915050565b60008060408385031215611fcf57611fce611cc7565b5b6000611fdd85828601611d9e565b9250506020611fee85828601611d9e565b9150509250929050565b6000819050919050565b600061201d61201861201384611c44565b611ff8565b611c44565b9050919050565b600061202f82612002565b9050919050565b600061204182612024565b9050919050565b61205181612036565b82525050565b600060208201905061206c6000830184612048565b92915050565b60006020828403121561208857612087611cc7565b5b600061209684828501611f48565b91505092915050565b60006020820190506120b46000830184611c76565b92915050565b7f4e487b7100000000000000000000000000000000000000000000000000000000600052601160045260246000fd5b60006120f482611c85565b91506120ff83611c85565b9250817fffffffffffffffffffffffffffffffffffffffffffffffffffffffffffffffff0483118215151615612138576121376120ba565b5b828202905092915050565b600082825260208201905092915050565b7f64697361626c6564000000000000000000000000000000000000000000000000600082015250565b600061218a600883612143565b915061219582612154565b602082019050919050565b600060208201905081810360008301526121b98161217d565b9050919050565b6000815190506121cf81611d87565b92915050565b6000602082840312156121eb576121ea611cc7565b5b60006121f9848285016121c0565b91505092915050565b7f6472790000000000000000000000000000000000000000000000000000000000600082015250565b6000612238600383612143565b915061224382612202565b602082019050919050565b600060208201905081810360008301526122678161222b565b9050919050565b600061227982612024565b9050919050565b6122898161226e565b82525050565b60006020820190506122a46000830184612280565b92915050565b7f6c696d6974000000000000000000000000000000000000000000000000000000600082015250565b60006122e0600583612143565b91506122eb826122aa565b602082019050919050565b6000602082019050818103600083015261230f816122d3565b9050919050565b7f7573656400000000000000000000000000000000000000000000000000000000600082015250565b600061234c600483612143565b915061235782612316565b602082019050919050565b6000602082019050818103600083015261237b8161233f565b9050919050565b7f74696d656f757400000000000000000000000000000000000000000000000000600082015250565b60006123b8600783612143565b91506123c382612382565b602082019050919050565b600060208201905081810360008301526123e7816123ab565b9050919050565b60006040820190506124036000830185612280565b6124106020830184611c8f565b9392505050565b60008151905061242681611de0565b92915050565b60006020828403121561244257612441611cc7565b5b600061245084828501612417565b91505092915050565b7f73656e64206661696c0000000000000000000000000000000000000000000000600082015250565b600061248f600983612143565b915061249a82612459565b602082019050919050565b600060208201905081810360008301526124be81612482565b9050919050565b60006124d082611c85565b91506124db83611c85565b9250827fffffffffffffffffffffffffffffffffffffffffffffffffffffffffffffffff038211156125105761250f6120ba565b5b828201905092915050565b7f416363657373436f6e74726f6c3a2063616e206f6e6c792072656e6f756e636560008201527f20726f6c657320666f722073656c660000000000000000000000000000000000602082015250565b6000612577602f83612143565b91506125828261251b565b604082019050919050565b600060208201905081810360008301526125a68161256a565b9050919050565b7f4f776e61626c653a2063616c6c6572206973206e6f7420746865206f776e6572600082015250565b60006125e3602083612143565b91506125ee826125ad565b602082019050919050565b60006020820190508181036000830152612612816125d6565b9050919050565b7f7472616e73666572206661696c65640000000000000000000000000000000000600082015250565b600061264f600f83612143565b915061265a82612619565b602082019050919050565b6000602082019050818103600083015261267e81612642565b9050919050565b60008160011c9050919050565b6000808291508390505b60018511156126dc578086048111156126b8576126b76120ba565b5b60018516156126c75780820291505b80810290506126d585612685565b945061269c565b94509492505050565b6000826126f557600190506127b1565b8161270357600090506127b1565b8160018114612719576002811461272357612752565b60019150506127b1565b60ff841115612735576127346120ba565b5b8360020a91508482111561274c5761274b6120ba565b5b506127b1565b5060208310610133831016604e8410600b84101617156127875782820a905083811115612782576127816120ba565b5b6127b1565b6127948484846001612692565b925090508184048111156127ab576127aa6120ba565b5b81810290505b9392505050565b60006127c382611c85565b91506127ce83611c85565b92506127fb7fffffffffffffffffffffffffffffffffffffffffffffffffffffffffffffffff84846126e5565b905092915050565b7f4f776e61626c653a206e6577206f776e657220697320746865207a65726f206160008201527f6464726573730000000000000000000000000000000000000000000000000000602082015250565b600061285f602683612143565b915061286a82612803565b604082019050919050565b6000602082019050818103600083015261288e81612852565b9050919050565b600081905092915050565b7f416363657373436f6e74726f6c3a206163636f756e7420000000000000000000600082015250565b60006128d6601783612895565b91506128e1826128a0565b601782019050919050565b600081519050919050565b60005b838110156129155780820151818401526020810190506128fa565b83811115612924576000848401525b50505050565b6000612935826128ec565b61293f8185612895565b935061294f8185602086016128f7565b80840191505092915050565b7f206973206d697373696e6720726f6c6520000000000000000000000000000000600082015250565b6000612991601183612895565b915061299c8261295b565b601182019050919050565b60006129b2826128c9565b91506129be828561292a565b91506129c982612984565b91506129d5828461292a565b91508190509392505050565b6000601f19601f8301169050919050565b60006129fd826128ec565b612a078185612143565b9350612a178185602086016128f7565b612a20816129e1565b840191505092915050565b60006020820190508181036000830152612a4581846129f2565b905092915050565b7f4e487b7100000000000000000000000000000000000000000000000000000000600052604160045260246000fd5b7f4e487b7100000000000000000000000000000000000000000000000000000000600052603260045260246000fd5b6000612ab682611c85565b91506000821415612aca57612ac96120ba565b5b600182039050919050565b7f537472696e67733a20686578206c656e67746820696e73756666696369656e74600082015250565b6000612b0b602083612143565b9150612b1682612ad5565b602082019050919050565b60006020820190508181036000830152612b3a81612afe565b905091905056fea2646970667358221220df02d5b6d3c2d4daa299a9e813aa70dfe833775b2b59cc0d74afd1b5a84f429364736f6c63430008090033",
  "linkReferences": {},
  "deployedLinkReferences": {}
}