{
  "_format": "hh-sol-artifact-1",
  "contractName": "Fweb3MaticFaucet",
  "sourceName": "contracts/Fweb3MaticFaucet.sol",
  "abi": [
    {
      "inputs": [
        {
          "internalType": "uint256",
          "name": "_dripAmount",
          "type": "uint256"
        },
        {
          "internalType": "uint256",
          "name": "_decimals",
          "type": "uint256"
        },
        {
          "internalType": "contract IERC20",
          "name": "_erc20Required",
          "type": "address"
        }
      ],
      "stateMutability": "nonpayable",
      "type": "constructor"
    },
    {
      "anonymous": false,
      "inputs": [
        {
          "indexed": false,
          "internalType": "address",
          "name": "",
          "type": "address"
        },
        {
          "indexed": false,
          "internalType": "uint256",
          "name": "",
          "type": "uint256"
        }
      ],
      "name": "DrippedEth",
      "type": "event"
    },
    {
      "anonymous": false,
      "inputs": [
        {
          "indexed": true,
          "internalType": "address",
          "name": "previousOwner",
          "type": "address"
        },
        {
          "indexed": true,
          "internalType": "address",
          "name": "newOwner",
          "type": "address"
        }
      ],
      "name": "OwnershipTransferred",
      "type": "event"
    },
    {
      "anonymous": false,
      "inputs": [
        {
          "indexed": false,
          "internalType": "address",
          "name": "",
          "type": "address"
        },
        {
          "indexed": false,
          "internalType": "uint256",
          "name": "",
          "type": "uint256"
        }
      ],
      "name": "ReceivedEth",
      "type": "event"
    },
    {
      "anonymous": false,
      "inputs": [
        {
          "indexed": true,
          "internalType": "bytes32",
          "name": "role",
          "type": "bytes32"
        },
        {
          "indexed": true,
          "internalType": "bytes32",
          "name": "previousAdminRole",
          "type": "bytes32"
        },
        {
          "indexed": true,
          "internalType": "bytes32",
          "name": "newAdminRole",
          "type": "bytes32"
        }
      ],
      "name": "RoleAdminChanged",
      "type": "event"
    },
    {
      "anonymous": false,
      "inputs": [
        {
          "indexed": true,
          "internalType": "bytes32",
          "name": "role",
          "type": "bytes32"
        },
        {
          "indexed": true,
          "internalType": "address",
          "name": "account",
          "type": "address"
        },
        {
          "indexed": true,
          "internalType": "address",
          "name": "sender",
          "type": "address"
        }
      ],
      "name": "RoleGranted",
      "type": "event"
    },
    {
      "anonymous": false,
      "inputs": [
        {
          "indexed": true,
          "internalType": "bytes32",
          "name": "role",
          "type": "bytes32"
        },
        {
          "indexed": true,
          "internalType": "address",
          "name": "account",
          "type": "address"
        },
        {
          "indexed": true,
          "internalType": "address",
          "name": "sender",
          "type": "address"
        }
      ],
      "name": "RoleRevoked",
      "type": "event"
    },
    {
      "inputs": [],
      "name": "ADMIN_ROLE",
      "outputs": [
        {
          "internalType": "bytes32",
          "name": "",
          "type": "bytes32"
        }
      ],
      "stateMutability": "view",
      "type": "function"
    },
    {
      "inputs": [],
      "name": "DEFAULT_ADMIN_ROLE",
      "outputs": [
        {
          "internalType": "bytes32",
          "name": "",
          "type": "bytes32"
        }
      ],
      "stateMutability": "view",
      "type": "function"
    },
    {
      "inputs": [],
      "name": "allowableExistingBalance",
      "outputs": [
        {
          "internalType": "uint256",
          "name": "",
          "type": "uint256"
        }
      ],
      "stateMutability": "view",
      "type": "function"
    },
    {
      "inputs": [],
      "name": "decimals",
      "outputs": [
        {
          "internalType": "uint256",
          "name": "",
          "type": "uint256"
        }
      ],
      "stateMutability": "view",
      "type": "function"
    },
    {
      "inputs": [
        {
          "internalType": "address payable",
          "name": "to",
          "type": "address"
        }
      ],
      "name": "drainEth",
      "outputs": [],
      "stateMutability": "nonpayable",
      "type": "function"
    },
    {
      "inputs": [],
      "name": "dripAmount",
      "outputs": [
        {
          "internalType": "uint256",
          "name": "",
          "type": "uint256"
        }
      ],
      "stateMutability": "view",
      "type": "function"
    },
    {
      "inputs": [
        {
          "internalType": "address payable",
          "name": "to",
          "type": "address"
        }
      ],
      "name": "dripMatic",
      "outputs": [],
      "stateMutability": "nonpayable",
      "type": "function"
    },
    {
      "inputs": [],
      "name": "erc20Required",
      "outputs": [
        {
          "internalType": "contract IERC20",
          "name": "",
          "type": "address"
        }
      ],
      "stateMutability": "view",
      "type": "function"
    },
    {
      "inputs": [],
      "name": "faucetDisabled",
      "outputs": [
        {
          "internalType": "bool",
          "name": "",
          "type": "bool"
        }
      ],
      "stateMutability": "view",
      "type": "function"
    },
    {
      "inputs": [
        {
          "internalType": "bytes32",
          "name": "role",
          "type": "bytes32"
        }
      ],
      "name": "getRoleAdmin",
      "outputs": [
        {
          "internalType": "bytes32",
          "name": "",
          "type": "bytes32"
        }
      ],
      "stateMutability": "view",
      "type": "function"
    },
    {
      "inputs": [
        {
          "internalType": "bytes32",
          "name": "role",
          "type": "bytes32"
        },
        {
          "internalType": "address",
          "name": "account",
          "type": "address"
        }
      ],
      "name": "grantRole",
      "outputs": [],
      "stateMutability": "nonpayable",
      "type": "function"
    },
    {
      "inputs": [
        {
          "internalType": "bytes32",
          "name": "role",
          "type": "bytes32"
        },
        {
          "internalType": "address",
          "name": "account",
          "type": "address"
        }
      ],
      "name": "hasRole",
      "outputs": [
        {
          "internalType": "bool",
          "name": "",
          "type": "bool"
        }
      ],
      "stateMutability": "view",
      "type": "function"
    },
    {
      "inputs": [],
      "name": "minErc20Required",
      "outputs": [
        {
          "internalType": "uint256",
          "name": "",
          "type": "uint256"
        }
      ],
      "stateMutability": "view",
      "type": "function"
    },
    {
      "inputs": [],
      "name": "minErc20RequiredDecimals",
      "outputs": [
        {
          "internalType": "uint256",
          "name": "",
          "type": "uint256"
        }
      ],
      "stateMutability": "view",
      "type": "function"
    },
    {
      "inputs": [],
      "name": "owner",
      "outputs": [
        {
          "internalType": "address",
          "name": "",
          "type": "address"
        }
      ],
      "stateMutability": "view",
      "type": "function"
    },
    {
      "inputs": [],
      "name": "renounceOwnership",
      "outputs": [],
      "stateMutability": "nonpayable",
      "type": "function"
    },
    {
      "inputs": [
        {
          "internalType": "bytes32",
          "name": "role",
          "type": "bytes32"
        },
        {
          "internalType": "address",
          "name": "account",
          "type": "address"
        }
      ],
      "name": "renounceRole",
      "outputs": [],
      "stateMutability": "nonpayable",
      "type": "function"
    },
    {
      "inputs": [
        {
          "internalType": "bytes32",
          "name": "role",
          "type": "bytes32"
        },
        {
          "internalType": "address",
          "name": "account",
          "type": "address"
        }
      ],
      "name": "revokeRole",
      "outputs": [],
      "stateMutability": "nonpayable",
      "type": "function"
    },
    {
      "inputs": [
        {
          "internalType": "uint256",
          "name": "amt",
          "type": "uint256"
        }
      ],
      "name": "setAllowablExistingBalance",
      "outputs": [],
      "stateMutability": "nonpayable",
      "type": "function"
    },
    {
      "inputs": [
        {
          "internalType": "bool",
          "name": "val",
          "type": "bool"
        }
      ],
      "name": "setDisabled",
      "outputs": [],
      "stateMutability": "nonpayable",
      "type": "function"
    },
    {
      "inputs": [
        {
          "internalType": "uint256",
          "name": "amount",
          "type": "uint256"
        },
        {
          "internalType": "uint256",
          "name": "_decimals",
          "type": "uint256"
        }
      ],
      "name": "setDripAmount",
      "outputs": [],
      "stateMutability": "nonpayable",
      "type": "function"
    },
    {
      "inputs": [
        {
          "internalType": "uint256",
          "name": "min",
          "type": "uint256"
        },
        {
          "internalType": "uint256",
          "name": "erc20RequiredDecimals",
          "type": "uint256"
        }
      ],
      "name": "setMinErc20Required",
      "outputs": [],
      "stateMutability": "nonpayable",
      "type": "function"
    },
    {
      "inputs": [
        {
          "internalType": "bool",
          "name": "shouldBeSingleUse",
          "type": "bool"
        }
      ],
      "name": "setSingleUse",
      "outputs": [],
      "stateMutability": "nonpayable",
      "type": "function"
    },
    {
      "inputs": [
        {
          "internalType": "uint256",
          "name": "_timeout",
          "type": "uint256"
        }
      ],
      "name": "setTimeout",
      "outputs": [],
      "stateMutability": "nonpayable",
      "type": "function"
    },
    {
      "inputs": [],
      "name": "singleUse",
      "outputs": [
        {
          "internalType": "bool",
          "name": "",
          "type": "bool"
        }
      ],
      "stateMutability": "view",
      "type": "function"
    },
    {
      "inputs": [
        {
          "internalType": "bytes4",
          "name": "interfaceId",
          "type": "bytes4"
        }
      ],
      "name": "supportsInterface",
      "outputs": [
        {
          "internalType": "bool",
          "name": "",
          "type": "bool"
        }
      ],
      "stateMutability": "view",
      "type": "function"
    },
    {
      "inputs": [],
      "name": "timeout",
      "outputs": [
        {
          "internalType": "uint256",
          "name": "",
          "type": "uint256"
        }
      ],
      "stateMutability": "view",
      "type": "function"
    },
    {
      "inputs": [
        {
          "internalType": "address",
          "name": "newOwner",
          "type": "address"
        }
      ],
      "name": "transferOwnership",
      "outputs": [],
      "stateMutability": "nonpayable",
      "type": "function"
    },
    {
      "stateMutability": "payable",
      "type": "receive"
    }
  ],
  "bytecode": "0x60806040523480156200001157600080fd5b5060405162002e2c38038062002e2c833981810160405281019062000037919062000462565b620000576200004b6200016b60201b60201c565b6200017360201b60201c565b6200006c6000801b336200023760201b60201c565b6200009e7fa49807205ce4d355092ef5a8a18f56e8913cf4a201fbe287825b095693c21775336200023760201b60201c565b81600a620000ad919062000641565b83620000ba919062000692565b60058190555081600681905550610e106007819055506001600860016101000a81548160ff02191690831515021790555080600260006101000a81548173ffffffffffffffffffffffffffffffffffffffff021916908373ffffffffffffffffffffffffffffffffffffffff1602179055506012600481905550600454600a62000145919062000641565b61012c62000154919062000692565b6003819055506001600981905550505050620006f3565b600033905090565b60008060009054906101000a900473ffffffffffffffffffffffffffffffffffffffff169050816000806101000a81548173ffffffffffffffffffffffffffffffffffffffff021916908373ffffffffffffffffffffffffffffffffffffffff1602179055508173ffffffffffffffffffffffffffffffffffffffff168173ffffffffffffffffffffffffffffffffffffffff167f8be0079c531659141344cd1fd0a4f28419497f9722a3daafe3b4186f6b6457e060405160405180910390a35050565b6200024982826200024d60201b60201c565b5050565b6200025f82826200033e60201b60201c565b6200033a57600180600084815260200190815260200160002060000160008373ffffffffffffffffffffffffffffffffffffffff1673ffffffffffffffffffffffffffffffffffffffff16815260200190815260200160002060006101000a81548160ff021916908315150217905550620002df6200016b60201b60201c565b73ffffffffffffffffffffffffffffffffffffffff168173ffffffffffffffffffffffffffffffffffffffff16837f2f8788117e7eff1d82e926ec794901d17c78024a50270940304540a733656f0d60405160405180910390a45b5050565b60006001600084815260200190815260200160002060000160008373ffffffffffffffffffffffffffffffffffffffff1673ffffffffffffffffffffffffffffffffffffffff16815260200190815260200160002060009054906101000a900460ff16905092915050565b600080fd5b6000819050919050565b620003c381620003ae565b8114620003cf57600080fd5b50565b600081519050620003e381620003b8565b92915050565b600073ffffffffffffffffffffffffffffffffffffffff82169050919050565b60006200041682620003e9565b9050919050565b60006200042a8262000409565b9050919050565b6200043c816200041d565b81146200044857600080fd5b50565b6000815190506200045c8162000431565b92915050565b6000806000606084860312156200047e576200047d620003a9565b5b60006200048e86828701620003d2565b9350506020620004a186828701620003d2565b9250506040620004b4868287016200044b565b9150509250925092565b7f4e487b7100000000000000000000000000000000000000000000000000000000600052601160045260246000fd5b60008160011c9050919050565b6000808291508390505b60018511156200054c57808604811115620005245762000523620004be565b5b6001851615620005345780820291505b80810290506200054485620004ed565b945062000504565b94509492505050565b6000826200056757600190506200063a565b816200057757600090506200063a565b81600181146200059057600281146200059b57620005d1565b60019150506200063a565b60ff841115620005b057620005af620004be565b5b8360020a915084821115620005ca57620005c9620004be565b5b506200063a565b5060208310610133831016604e8410600b84101617156200060b5782820a905083811115620006055762000604620004be565b5b6200063a565b6200061a8484846001620004fa565b92509050818404811115620006345762000633620004be565b5b81810290505b9392505050565b60006200064e82620003ae565b91506200065b83620003ae565b92506200068a7fffffffffffffffffffffffffffffffffffffffffffffffffffffffffffffffff848462000555565b905092915050565b60006200069f82620003ae565b9150620006ac83620003ae565b9250817fffffffffffffffffffffffffffffffffffffffffffffffffffffffffffffffff0483118215151615620006e857620006e7620004be565b5b828202905092915050565b61272980620007036000396000f3fe6080604052600436106101bb5760003560e01c80638cf59bc7116100ec578063bf4bf2ae1161008a578063e28c817211610064578063e28c817214610618578063e928890c14610641578063ec1cb1941461066c578063f2fde38b14610695576101fb565b8063bf4bf2ae1461059d578063c58a34cc146105c6578063d547741f146105ef576101fb565b806392eb0af4116100c657806392eb0af4146104f3578063a217fddf1461051c578063a9a7ff2914610547578063bf027e8614610572576101fb565b80638cf59bc7146104625780638da5cb5b1461048b57806391d14854146104b6576101fb565b806357980e681161015957806370dea79a1161013357806370dea79a146103ca578063715018a6146103f557806375b238fc1461040c57806376e1032a14610437576101fb565b806357980e681461034d5780636c40bc15146103785780636c5a7d1e146103a1576101fb565b8063313ce56711610195578063313ce567146102a357806335a1529b146102ce57806336568abe146102f957806350283e4314610322576101fb565b806301ffc9a714610200578063248a9ca31461023d5780632f2ff15d1461027a576101fb565b366101fb577f52a6cdf67c40ce333b3d846e4e143db87f71dd7935612a4cafcf6ba76047ca1f33346040516101f1929190611875565b60405180910390a1005b600080fd5b34801561020c57600080fd5b50610227600480360381019061022291906118fb565b6106be565b6040516102349190611943565b60405180910390f35b34801561024957600080fd5b50610264600480360381019061025f9190611994565b610738565b60405161027191906119d0565b60405180910390f35b34801561028657600080fd5b506102a1600480360381019061029c9190611a17565b610758565b005b3480156102af57600080fd5b506102b8610781565b6040516102c59190611a57565b60405180910390f35b3480156102da57600080fd5b506102e3610787565b6040516102f09190611a57565b60405180910390f35b34801561030557600080fd5b50610320600480360381019061031b9190611a17565b61078d565b005b34801561032e57600080fd5b50610337610810565b6040516103449190611a57565b60405180910390f35b34801561035957600080fd5b50610362610816565b60405161036f9190611a57565b60405180910390f35b34801561038457600080fd5b5061039f600480360381019061039a9190611a9e565b61081c565b005b3480156103ad57600080fd5b506103c860048036038101906103c39190611b0a565b610871565b005b3480156103d657600080fd5b506103df6108c1565b6040516103ec9190611a57565b60405180910390f35b34801561040157600080fd5b5061040a6108c7565b005b34801561041857600080fd5b5061042161094f565b60405161042e91906119d0565b60405180910390f35b34801561044357600080fd5b5061044c610973565b6040516104599190611943565b60405180910390f35b34801561046e57600080fd5b5061048960048036038101906104849190611b75565b610986565b005b34801561049757600080fd5b506104a0610a4c565b6040516104ad9190611ba2565b60405180910390f35b3480156104c257600080fd5b506104dd60048036038101906104d89190611a17565b610a75565b6040516104ea9190611943565b60405180910390f35b3480156104ff57600080fd5b5061051a60048036038101906105159190611b75565b610ae0565b005b34801561052857600080fd5b50610531610fc4565b60405161053e91906119d0565b60405180910390f35b34801561055357600080fd5b5061055c610fcb565b6040516105699190611a57565b60405180910390f35b34801561057e57600080fd5b50610587610fd1565b6040516105949190611c1c565b60405180910390f35b3480156105a957600080fd5b506105c460048036038101906105bf9190611c37565b610ff7565b005b3480156105d257600080fd5b506105ed60048036038101906105e89190611c37565b611034565b005b3480156105fb57600080fd5b5061061660048036038101906106119190611a17565b611071565b005b34801561062457600080fd5b5061063f600480360381019061063a9190611b0a565b61109a565b005b34801561064d57600080fd5b506106566110ea565b6040516106639190611943565b60405180910390f35b34801561067857600080fd5b50610693600480360381019061068e9190611a9e565b6110fd565b005b3480156106a157600080fd5b506106bc60048036038101906106b79190611c64565b611152565b005b60007f7965db0b000000000000000000000000000000000000000000000000000000007bffffffffffffffffffffffffffffffffffffffffffffffffffffffff1916827bffffffffffffffffffffffffffffffffffffffffffffffffffffffff1916148061073157506107308261124a565b5b9050919050565b600060016000838152602001908152602001600020600101549050919050565b61076182610738565b6107728161076d6112b4565b6112bc565b61077c8383611359565b505050565b60065481565b60055481565b6107956112b4565b73ffffffffffffffffffffffffffffffffffffffff168173ffffffffffffffffffffffffffffffffffffffff1614610802576040517f08c379a00000000000000000000000000000000000000000000000000000000081526004016107f990611d14565b60405180910390fd5b61080c8282611439565b5050565b60045481565b60035481565b7fa49807205ce4d355092ef5a8a18f56e8913cf4a201fbe287825b095693c2177561084e816108496112b4565b6112bc565b81600a61085b9190611e96565b836108669190611ee1565b600581905550505050565b7fa49807205ce4d355092ef5a8a18f56e8913cf4a201fbe287825b095693c217756108a38161089e6112b4565b6112bc565b81600860006101000a81548160ff0219169083151502179055505050565b60075481565b6108cf6112b4565b73ffffffffffffffffffffffffffffffffffffffff166108ed610a4c565b73ffffffffffffffffffffffffffffffffffffffff1614610943576040517f08c379a000000000000000000000000000000000000000000000000000000000815260040161093a90611f87565b60405180910390fd5b61094d600061151b565b565b7fa49807205ce4d355092ef5a8a18f56e8913cf4a201fbe287825b095693c2177581565b600860019054906101000a900460ff1681565b61098e6112b4565b73ffffffffffffffffffffffffffffffffffffffff166109ac610a4c565b73ffffffffffffffffffffffffffffffffffffffff1614610a02576040517f08c379a00000000000000000000000000000000000000000000000000000000081526004016109f990611f87565b60405180910390fd5b8073ffffffffffffffffffffffffffffffffffffffff166108fc479081150290604051600060405180830381858888f19350505050158015610a48573d6000803e3d6000fd5b5050565b60008060009054906101000a900473ffffffffffffffffffffffffffffffffffffffff16905090565b60006001600084815260200190815260200160002060000160008373ffffffffffffffffffffffffffffffffffffffff1673ffffffffffffffffffffffffffffffffffffffff16815260200190815260200160002060009054906101000a900460ff16905092915050565b7fa49807205ce4d355092ef5a8a18f56e8913cf4a201fbe287825b095693c21775610b1281610b0d6112b4565b6112bc565b600860009054906101000a900460ff1615610b62576040517f08c379a0000000000000000000000000000000000000000000000000000000008152600401610b5990611ff3565b60405180910390fd5b600060095414610bc9576009548273ffffffffffffffffffffffffffffffffffffffff16311115610bc8576040517f08c379a0000000000000000000000000000000000000000000000000000000008152600401610bbf9061205f565b60405180910390fd5b5b600354600260009054906101000a900473ffffffffffffffffffffffffffffffffffffffff1673ffffffffffffffffffffffffffffffffffffffff166370a08231846040518263ffffffff1660e01b8152600401610c2791906120a0565b60206040518083038186803b158015610c3f57600080fd5b505afa158015610c53573d6000803e3d6000fd5b505050506040513d601f19601f82011682018060405250810190610c7791906120d0565b1015610cb8576040517f08c379a0000000000000000000000000000000000000000000000000000000008152600401610caf90612149565b60405180910390fd5b600860019054906101000a900460ff1615610d5b57600a60008373ffffffffffffffffffffffffffffffffffffffff1673ffffffffffffffffffffffffffffffffffffffff16815260200190815260200160002060009054906101000a900460ff1615610d5a576040517f08c379a0000000000000000000000000000000000000000000000000000000008152600401610d51906121b5565b60405180910390fd5b5b600060075414610de85742600b60008473ffffffffffffffffffffffffffffffffffffffff1673ffffffffffffffffffffffffffffffffffffffff168152602001908152602001600020541115610de7576040517f08c379a0000000000000000000000000000000000000000000000000000000008152600401610dde90612221565b60405180910390fd5b5b600554471015610e2d576040517f08c379a0000000000000000000000000000000000000000000000000000000008152600401610e249061228d565b60405180910390fd5b60008273ffffffffffffffffffffffffffffffffffffffff16600554604051610e55906122de565b60006040518083038185875af1925050503d8060008114610e92576040519150601f19603f3d011682016040523d82523d6000602084013e610e97565b606091505b5050905080610edb576040517f08c379a0000000000000000000000000000000000000000000000000000000008152600401610ed29061233f565b60405180910390fd5b60075442610ee9919061235f565b600b60008573ffffffffffffffffffffffffffffffffffffffff1673ffffffffffffffffffffffffffffffffffffffff168152602001908152602001600020819055506001600a60008573ffffffffffffffffffffffffffffffffffffffff1673ffffffffffffffffffffffffffffffffffffffff16815260200190815260200160002060006101000a81548160ff0219169083151502179055507f1df031d1f1f18193c7c7f2237f14bca5f9ad49130c4b5a5ac229b74982a4bf0f33600554604051610fb7929190611875565b60405180910390a1505050565b6000801b81565b60095481565b600260009054906101000a900473ffffffffffffffffffffffffffffffffffffffff1681565b7fa49807205ce4d355092ef5a8a18f56e8913cf4a201fbe287825b095693c21775611029816110246112b4565b6112bc565b816009819055505050565b7fa49807205ce4d355092ef5a8a18f56e8913cf4a201fbe287825b095693c21775611066816110616112b4565b6112bc565b816007819055505050565b61107a82610738565b61108b816110866112b4565b6112bc565b6110958383611439565b505050565b7fa49807205ce4d355092ef5a8a18f56e8913cf4a201fbe287825b095693c217756110cc816110c76112b4565b6112bc565b81600860016101000a81548160ff0219169083151502179055505050565b600860009054906101000a900460ff1681565b7fa49807205ce4d355092ef5a8a18f56e8913cf4a201fbe287825b095693c2177561112f8161112a6112b4565b6112bc565b81600a61113c9190611e96565b836111479190611ee1565b600381905550505050565b61115a6112b4565b73ffffffffffffffffffffffffffffffffffffffff16611178610a4c565b73ffffffffffffffffffffffffffffffffffffffff16146111ce576040517f08c379a00000000000000000000000000000000000000000000000000000000081526004016111c590611f87565b60405180910390fd5b600073ffffffffffffffffffffffffffffffffffffffff168173ffffffffffffffffffffffffffffffffffffffff16141561123e576040517f08c379a000000000000000000000000000000000000000000000000000000000815260040161123590612427565b60405180910390fd5b6112478161151b565b50565b60007f01ffc9a7000000000000000000000000000000000000000000000000000000007bffffffffffffffffffffffffffffffffffffffffffffffffffffffff1916827bffffffffffffffffffffffffffffffffffffffffffffffffffffffff1916149050919050565b600033905090565b6112c68282610a75565b611355576112eb8173ffffffffffffffffffffffffffffffffffffffff1660146115df565b6112f98360001c60206115df565b60405160200161130a929190612559565b6040516020818303038152906040526040517f08c379a000000000000000000000000000000000000000000000000000000000815260040161134c91906125dd565b60405180910390fd5b5050565b6113638282610a75565b61143557600180600084815260200190815260200160002060000160008373ffffffffffffffffffffffffffffffffffffffff1673ffffffffffffffffffffffffffffffffffffffff16815260200190815260200160002060006101000a81548160ff0219169083151502179055506113da6112b4565b73ffffffffffffffffffffffffffffffffffffffff168173ffffffffffffffffffffffffffffffffffffffff16837f2f8788117e7eff1d82e926ec794901d17c78024a50270940304540a733656f0d60405160405180910390a45b5050565b6114438282610a75565b156115175760006001600084815260200190815260200160002060000160008373ffffffffffffffffffffffffffffffffffffffff1673ffffffffffffffffffffffffffffffffffffffff16815260200190815260200160002060006101000a81548160ff0219169083151502179055506114bc6112b4565b73ffffffffffffffffffffffffffffffffffffffff168173ffffffffffffffffffffffffffffffffffffffff16837ff6391f5c32d9c69d2a47ea670b442974b53935d1edc7fd64eb21e047a839171b60405160405180910390a45b5050565b60008060009054906101000a900473ffffffffffffffffffffffffffffffffffffffff169050816000806101000a81548173ffffffffffffffffffffffffffffffffffffffff021916908373ffffffffffffffffffffffffffffffffffffffff1602179055508173ffffffffffffffffffffffffffffffffffffffff168173ffffffffffffffffffffffffffffffffffffffff167f8be0079c531659141344cd1fd0a4f28419497f9722a3daafe3b4186f6b6457e060405160405180910390a35050565b6060600060028360026115f29190611ee1565b6115fc919061235f565b67ffffffffffffffff811115611615576116146125ff565b5b6040519080825280601f01601f1916602001820160405280156116475781602001600182028036833780820191505090505b5090507f30000000000000000000000000000000000000000000000000000000000000008160008151811061167f5761167e61262e565b5b60200101907effffffffffffffffffffffffffffffffffffffffffffffffffffffffffffff1916908160001a9053507f7800000000000000000000000000000000000000000000000000000000000000816001815181106116e3576116e261262e565b5b60200101907effffffffffffffffffffffffffffffffffffffffffffffffffffffffffffff1916908160001a905350600060018460026117239190611ee1565b61172d919061235f565b90505b60018111156117cd577f3031323334353637383961626364656600000000000000000000000000000000600f86166010811061176f5761176e61262e565b5b1a60f81b8282815181106117865761178561262e565b5b60200101907effffffffffffffffffffffffffffffffffffffffffffffffffffffffffffff1916908160001a905350600485901c9450806117c69061265d565b9050611730565b5060008414611811576040517f08c379a0000000000000000000000000000000000000000000000000000000008152600401611808906126d3565b60405180910390fd5b8091505092915050565b600073ffffffffffffffffffffffffffffffffffffffff82169050919050565b60006118468261181b565b9050919050565b6118568161183b565b82525050565b6000819050919050565b61186f8161185c565b82525050565b600060408201905061188a600083018561184d565b6118976020830184611866565b9392505050565b600080fd5b60007fffffffff0000000000000000000000000000000000000000000000000000000082169050919050565b6118d8816118a3565b81146118e357600080fd5b50565b6000813590506118f5816118cf565b92915050565b6000602082840312156119115761191061189e565b5b600061191f848285016118e6565b91505092915050565b60008115159050919050565b61193d81611928565b82525050565b60006020820190506119586000830184611934565b92915050565b6000819050919050565b6119718161195e565b811461197c57600080fd5b50565b60008135905061198e81611968565b92915050565b6000602082840312156119aa576119a961189e565b5b60006119b88482850161197f565b91505092915050565b6119ca8161195e565b82525050565b60006020820190506119e560008301846119c1565b92915050565b6119f48161183b565b81146119ff57600080fd5b50565b600081359050611a11816119eb565b92915050565b60008060408385031215611a2e57611a2d61189e565b5b6000611a3c8582860161197f565b9250506020611a4d85828601611a02565b9150509250929050565b6000602082019050611a6c6000830184611866565b92915050565b611a7b8161185c565b8114611a8657600080fd5b50565b600081359050611a9881611a72565b92915050565b60008060408385031215611ab557611ab461189e565b5b6000611ac385828601611a89565b9250506020611ad485828601611a89565b9150509250929050565b611ae781611928565b8114611af257600080fd5b50565b600081359050611b0481611ade565b92915050565b600060208284031215611b2057611b1f61189e565b5b6000611b2e84828501611af5565b91505092915050565b6000611b428261181b565b9050919050565b611b5281611b37565b8114611b5d57600080fd5b50565b600081359050611b6f81611b49565b92915050565b600060208284031215611b8b57611b8a61189e565b5b6000611b9984828501611b60565b91505092915050565b6000602082019050611bb7600083018461184d565b92915050565b6000819050919050565b6000611be2611bdd611bd88461181b565b611bbd565b61181b565b9050919050565b6000611bf482611bc7565b9050919050565b6000611c0682611be9565b9050919050565b611c1681611bfb565b82525050565b6000602082019050611c316000830184611c0d565b92915050565b600060208284031215611c4d57611c4c61189e565b5b6000611c5b84828501611a89565b91505092915050565b600060208284031215611c7a57611c7961189e565b5b6000611c8884828501611a02565b91505092915050565b600082825260208201905092915050565b7f416363657373436f6e74726f6c3a2063616e206f6e6c792072656e6f756e636560008201527f20726f6c657320666f722073656c660000000000000000000000000000000000602082015250565b6000611cfe602f83611c91565b9150611d0982611ca2565b604082019050919050565b60006020820190508181036000830152611d2d81611cf1565b9050919050565b7f4e487b7100000000000000000000000000000000000000000000000000000000600052601160045260246000fd5b60008160011c9050919050565b6000808291508390505b6001851115611dba57808604811115611d9657611d95611d34565b5b6001851615611da55780820291505b8081029050611db385611d63565b9450611d7a565b94509492505050565b600082611dd35760019050611e8f565b81611de15760009050611e8f565b8160018114611df75760028114611e0157611e30565b6001915050611e8f565b60ff841115611e1357611e12611d34565b5b8360020a915084821115611e2a57611e29611d34565b5b50611e8f565b5060208310610133831016604e8410600b8410161715611e655782820a905083811115611e6057611e5f611d34565b5b611e8f565b611e728484846001611d70565b92509050818404811115611e8957611e88611d34565b5b81810290505b9392505050565b6000611ea18261185c565b9150611eac8361185c565b9250611ed97fffffffffffffffffffffffffffffffffffffffffffffffffffffffffffffffff8484611dc3565b905092915050565b6000611eec8261185c565b9150611ef78361185c565b9250817fffffffffffffffffffffffffffffffffffffffffffffffffffffffffffffffff0483118215151615611f3057611f2f611d34565b5b828202905092915050565b7f4f776e61626c653a2063616c6c6572206973206e6f7420746865206f776e6572600082015250565b6000611f71602083611c91565b9150611f7c82611f3b565b602082019050919050565b60006020820190508181036000830152611fa081611f64565b9050919050565b7f64697361626c6564000000000000000000000000000000000000000000000000600082015250565b6000611fdd600883611c91565b9150611fe882611fa7565b602082019050919050565b6000602082019050818103600083015261200c81611fd0565b9050919050565b7f6e6f206e65656400000000000000000000000000000000000000000000000000600082015250565b6000612049600783611c91565b915061205482612013565b602082019050919050565b600060208201905081810360008301526120788161203c565b9050919050565b600061208a82611be9565b9050919050565b61209a8161207f565b82525050565b60006020820190506120b56000830184612091565b92915050565b6000815190506120ca81611a72565b92915050565b6000602082840312156120e6576120e561189e565b5b60006120f4848285016120bb565b91505092915050565b7f6d697373696e6720657263323000000000000000000000000000000000000000600082015250565b6000612133600d83611c91565b915061213e826120fd565b602082019050919050565b6000602082019050818103600083015261216281612126565b9050919050565b7f7573656400000000000000000000000000000000000000000000000000000000600082015250565b600061219f600483611c91565b91506121aa82612169565b602082019050919050565b600060208201905081810360008301526121ce81612192565b9050919050565b7f74696d656f757400000000000000000000000000000000000000000000000000600082015250565b600061220b600783611c91565b9150612216826121d5565b602082019050919050565b6000602082019050818103600083015261223a816121fe565b9050919050565b7f6472790000000000000000000000000000000000000000000000000000000000600082015250565b6000612277600383611c91565b915061228282612241565b602082019050919050565b600060208201905081810360008301526122a68161226a565b9050919050565b600081905092915050565b50565b60006122c86000836122ad565b91506122d3826122b8565b600082019050919050565b60006122e9826122bb565b9150819050919050565b7f73656e64206661696c6564000000000000000000000000000000000000000000600082015250565b6000612329600b83611c91565b9150612334826122f3565b602082019050919050565b600060208201905081810360008301526123588161231c565b9050919050565b600061236a8261185c565b91506123758361185c565b9250827fffffffffffffffffffffffffffffffffffffffffffffffffffffffffffffffff038211156123aa576123a9611d34565b5b828201905092915050565b7f4f776e61626c653a206e6577206f776e657220697320746865207a65726f206160008201527f6464726573730000000000000000000000000000000000000000000000000000602082015250565b6000612411602683611c91565b915061241c826123b5565b604082019050919050565b6000602082019050818103600083015261244081612404565b9050919050565b600081905092915050565b7f416363657373436f6e74726f6c3a206163636f756e7420000000000000000000600082015250565b6000612488601783612447565b915061249382612452565b601782019050919050565b600081519050919050565b60005b838110156124c75780820151818401526020810190506124ac565b838111156124d6576000848401525b50505050565b60006124e78261249e565b6124f18185612447565b93506125018185602086016124a9565b80840191505092915050565b7f206973206d697373696e6720726f6c6520000000000000000000000000000000600082015250565b6000612543601183612447565b915061254e8261250d565b601182019050919050565b60006125648261247b565b915061257082856124dc565b915061257b82612536565b915061258782846124dc565b91508190509392505050565b6000601f19601f8301169050919050565b60006125af8261249e565b6125b98185611c91565b93506125c98185602086016124a9565b6125d281612593565b840191505092915050565b600060208201905081810360008301526125f781846125a4565b905092915050565b7f4e487b7100000000000000000000000000000000000000000000000000000000600052604160045260246000fd5b7f4e487b7100000000000000000000000000000000000000000000000000000000600052603260045260246000fd5b60006126688261185c565b9150600082141561267c5761267b611d34565b5b600182039050919050565b7f537472696e67733a20686578206c656e67746820696e73756666696369656e74600082015250565b60006126bd602083611c91565b91506126c882612687565b602082019050919050565b600060208201905081810360008301526126ec816126b0565b905091905056fea26469706673582212200c6396edb0888ca88151088cb74ae97d736d12ecda0bb71a251ee6e980a1242864736f6c63430008090033",
  "linkReferences": {},
  "deployedLinkReferences": {}
}