{
  "_format": "hh-sol-artifact-1",
  "contractName": "Fweb3MaticFaucet",
  "sourceName": "contracts/Fweb3MaticFaucet.sol",
  "abi": [
    {
      "inputs": [
        {
          "internalType": "uint256",
          "name": "_dripAmount",
          "type": "uint256"
        },
        {
          "internalType": "uint256",
          "name": "_decimals",
          "type": "uint256"
        },
        {
          "internalType": "contract IERC20",
          "name": "_erc20Required",
          "type": "address"
        }
      ],
      "stateMutability": "nonpayable",
      "type": "constructor"
    },
    {
      "anonymous": false,
      "inputs": [
        {
          "indexed": false,
          "internalType": "address",
          "name": "",
          "type": "address"
        },
        {
          "indexed": false,
          "internalType": "uint256",
          "name": "",
          "type": "uint256"
        }
      ],
      "name": "DrippedEth",
      "type": "event"
    },
    {
      "anonymous": false,
      "inputs": [
        {
          "indexed": true,
          "internalType": "address",
          "name": "previousOwner",
          "type": "address"
        },
        {
          "indexed": true,
          "internalType": "address",
          "name": "newOwner",
          "type": "address"
        }
      ],
      "name": "OwnershipTransferred",
      "type": "event"
    },
    {
      "anonymous": false,
      "inputs": [
        {
          "indexed": false,
          "internalType": "address",
          "name": "",
          "type": "address"
        },
        {
          "indexed": false,
          "internalType": "uint256",
          "name": "",
          "type": "uint256"
        }
      ],
      "name": "ReceivedEth",
      "type": "event"
    },
    {
      "anonymous": false,
      "inputs": [
        {
          "indexed": true,
          "internalType": "bytes32",
          "name": "role",
          "type": "bytes32"
        },
        {
          "indexed": true,
          "internalType": "bytes32",
          "name": "previousAdminRole",
          "type": "bytes32"
        },
        {
          "indexed": true,
          "internalType": "bytes32",
          "name": "newAdminRole",
          "type": "bytes32"
        }
      ],
      "name": "RoleAdminChanged",
      "type": "event"
    },
    {
      "anonymous": false,
      "inputs": [
        {
          "indexed": true,
          "internalType": "bytes32",
          "name": "role",
          "type": "bytes32"
        },
        {
          "indexed": true,
          "internalType": "address",
          "name": "account",
          "type": "address"
        },
        {
          "indexed": true,
          "internalType": "address",
          "name": "sender",
          "type": "address"
        }
      ],
      "name": "RoleGranted",
      "type": "event"
    },
    {
      "anonymous": false,
      "inputs": [
        {
          "indexed": true,
          "internalType": "bytes32",
          "name": "role",
          "type": "bytes32"
        },
        {
          "indexed": true,
          "internalType": "address",
          "name": "account",
          "type": "address"
        },
        {
          "indexed": true,
          "internalType": "address",
          "name": "sender",
          "type": "address"
        }
      ],
      "name": "RoleRevoked",
      "type": "event"
    },
    {
      "inputs": [],
      "name": "ADMIN_ROLE",
      "outputs": [
        {
          "internalType": "bytes32",
          "name": "",
          "type": "bytes32"
        }
      ],
      "stateMutability": "view",
      "type": "function"
    },
    {
      "inputs": [],
      "name": "DEFAULT_ADMIN_ROLE",
      "outputs": [
        {
          "internalType": "bytes32",
          "name": "",
          "type": "bytes32"
        }
      ],
      "stateMutability": "view",
      "type": "function"
    },
    {
      "inputs": [],
      "name": "allowableExistingBalance",
      "outputs": [
        {
          "internalType": "uint256",
          "name": "",
          "type": "uint256"
        }
      ],
      "stateMutability": "view",
      "type": "function"
    },
    {
      "inputs": [],
      "name": "decimals",
      "outputs": [
        {
          "internalType": "uint256",
          "name": "",
          "type": "uint256"
        }
      ],
      "stateMutability": "view",
      "type": "function"
    },
    {
      "inputs": [
        {
          "internalType": "address payable",
          "name": "to",
          "type": "address"
        }
      ],
      "name": "drainEth",
      "outputs": [],
      "stateMutability": "nonpayable",
      "type": "function"
    },
    {
      "inputs": [],
      "name": "dripAmount",
      "outputs": [
        {
          "internalType": "uint256",
          "name": "",
          "type": "uint256"
        }
      ],
      "stateMutability": "view",
      "type": "function"
    },
    {
      "inputs": [
        {
          "internalType": "address payable",
          "name": "to",
          "type": "address"
        }
      ],
      "name": "dripMatic",
      "outputs": [],
      "stateMutability": "nonpayable",
      "type": "function"
    },
    {
      "inputs": [],
      "name": "erc20Required",
      "outputs": [
        {
          "internalType": "contract IERC20",
          "name": "",
          "type": "address"
        }
      ],
      "stateMutability": "view",
      "type": "function"
    },
    {
      "inputs": [],
      "name": "faucetDisabled",
      "outputs": [
        {
          "internalType": "bool",
          "name": "",
          "type": "bool"
        }
      ],
      "stateMutability": "view",
      "type": "function"
    },
    {
      "inputs": [
        {
          "internalType": "bytes32",
          "name": "role",
          "type": "bytes32"
        }
      ],
      "name": "getRoleAdmin",
      "outputs": [
        {
          "internalType": "bytes32",
          "name": "",
          "type": "bytes32"
        }
      ],
      "stateMutability": "view",
      "type": "function"
    },
    {
      "inputs": [
        {
          "internalType": "bytes32",
          "name": "role",
          "type": "bytes32"
        },
        {
          "internalType": "address",
          "name": "account",
          "type": "address"
        }
      ],
      "name": "grantRole",
      "outputs": [],
      "stateMutability": "nonpayable",
      "type": "function"
    },
    {
      "inputs": [
        {
          "internalType": "bytes32",
          "name": "role",
          "type": "bytes32"
        },
        {
          "internalType": "address",
          "name": "account",
          "type": "address"
        }
      ],
      "name": "hasRole",
      "outputs": [
        {
          "internalType": "bool",
          "name": "",
          "type": "bool"
        }
      ],
      "stateMutability": "view",
      "type": "function"
    },
    {
      "inputs": [],
      "name": "minErc20Required",
      "outputs": [
        {
          "internalType": "uint256",
          "name": "",
          "type": "uint256"
        }
      ],
      "stateMutability": "view",
      "type": "function"
    },
    {
      "inputs": [],
      "name": "minErc20RequiredDecimals",
      "outputs": [
        {
          "internalType": "uint256",
          "name": "",
          "type": "uint256"
        }
      ],
      "stateMutability": "view",
      "type": "function"
    },
    {
      "inputs": [],
      "name": "owner",
      "outputs": [
        {
          "internalType": "address",
          "name": "",
          "type": "address"
        }
      ],
      "stateMutability": "view",
      "type": "function"
    },
    {
      "inputs": [],
      "name": "renounceOwnership",
      "outputs": [],
      "stateMutability": "nonpayable",
      "type": "function"
    },
    {
      "inputs": [
        {
          "internalType": "bytes32",
          "name": "role",
          "type": "bytes32"
        },
        {
          "internalType": "address",
          "name": "account",
          "type": "address"
        }
      ],
      "name": "renounceRole",
      "outputs": [],
      "stateMutability": "nonpayable",
      "type": "function"
    },
    {
      "inputs": [
        {
          "internalType": "bytes32",
          "name": "role",
          "type": "bytes32"
        },
        {
          "internalType": "address",
          "name": "account",
          "type": "address"
        }
      ],
      "name": "revokeRole",
      "outputs": [],
      "stateMutability": "nonpayable",
      "type": "function"
    },
    {
      "inputs": [
        {
          "internalType": "uint256",
          "name": "amt",
          "type": "uint256"
        }
      ],
      "name": "setAllowablExistingBalance",
      "outputs": [],
      "stateMutability": "nonpayable",
      "type": "function"
    },
    {
      "inputs": [
        {
          "internalType": "bool",
          "name": "val",
          "type": "bool"
        }
      ],
      "name": "setDisabled",
      "outputs": [],
      "stateMutability": "nonpayable",
      "type": "function"
    },
    {
      "inputs": [
        {
          "internalType": "uint256",
          "name": "amount",
          "type": "uint256"
        },
        {
          "internalType": "uint256",
          "name": "_decimals",
          "type": "uint256"
        }
      ],
      "name": "setDripAmount",
      "outputs": [],
      "stateMutability": "nonpayable",
      "type": "function"
    },
    {
      "inputs": [
        {
          "internalType": "uint256",
          "name": "min",
          "type": "uint256"
        },
        {
          "internalType": "uint256",
          "name": "erc20RequiredDecimals",
          "type": "uint256"
        }
      ],
      "name": "setMinErc20Required",
      "outputs": [],
      "stateMutability": "nonpayable",
      "type": "function"
    },
    {
      "inputs": [
        {
          "internalType": "bool",
          "name": "shouldBeSingleUse",
          "type": "bool"
        }
      ],
      "name": "setSingleUse",
      "outputs": [],
      "stateMutability": "nonpayable",
      "type": "function"
    },
    {
      "inputs": [
        {
          "internalType": "uint256",
          "name": "_timeout",
          "type": "uint256"
        }
      ],
      "name": "setTimeout",
      "outputs": [],
      "stateMutability": "nonpayable",
      "type": "function"
    },
    {
      "inputs": [],
      "name": "singleUse",
      "outputs": [
        {
          "internalType": "bool",
          "name": "",
          "type": "bool"
        }
      ],
      "stateMutability": "view",
      "type": "function"
    },
    {
      "inputs": [
        {
          "internalType": "bytes4",
          "name": "interfaceId",
          "type": "bytes4"
        }
      ],
      "name": "supportsInterface",
      "outputs": [
        {
          "internalType": "bool",
          "name": "",
          "type": "bool"
        }
      ],
      "stateMutability": "view",
      "type": "function"
    },
    {
      "inputs": [],
      "name": "timeout",
      "outputs": [
        {
          "internalType": "uint256",
          "name": "",
          "type": "uint256"
        }
      ],
      "stateMutability": "view",
      "type": "function"
    },
    {
      "inputs": [
        {
          "internalType": "address",
          "name": "newOwner",
          "type": "address"
        }
      ],
      "name": "transferOwnership",
      "outputs": [],
      "stateMutability": "nonpayable",
      "type": "function"
    },
    {
      "stateMutability": "payable",
      "type": "receive"
    }
  ],
  "bytecode": "0x60806040523480156200001157600080fd5b5060405162002df938038062002df9833981810160405281019062000037919062000462565b620000576200004b6200016b60201b60201c565b6200017360201b60201c565b6200006c6000801b336200023760201b60201c565b6200009e7fa49807205ce4d355092ef5a8a18f56e8913cf4a201fbe287825b095693c21775336200023760201b60201c565b81600a620000ad919062000641565b83620000ba919062000692565b60058190555081600681905550610e106007819055506001600860016101000a81548160ff02191690831515021790555080600260006101000a81548173ffffffffffffffffffffffffffffffffffffffff021916908373ffffffffffffffffffffffffffffffffffffffff1602179055506012600481905550600454600a62000145919062000641565b61012c62000154919062000692565b6003819055506001600981905550505050620006f3565b600033905090565b60008060009054906101000a900473ffffffffffffffffffffffffffffffffffffffff169050816000806101000a81548173ffffffffffffffffffffffffffffffffffffffff021916908373ffffffffffffffffffffffffffffffffffffffff1602179055508173ffffffffffffffffffffffffffffffffffffffff168173ffffffffffffffffffffffffffffffffffffffff167f8be0079c531659141344cd1fd0a4f28419497f9722a3daafe3b4186f6b6457e060405160405180910390a35050565b6200024982826200024d60201b60201c565b5050565b6200025f82826200033e60201b60201c565b6200033a57600180600084815260200190815260200160002060000160008373ffffffffffffffffffffffffffffffffffffffff1673ffffffffffffffffffffffffffffffffffffffff16815260200190815260200160002060006101000a81548160ff021916908315150217905550620002df6200016b60201b60201c565b73ffffffffffffffffffffffffffffffffffffffff168173ffffffffffffffffffffffffffffffffffffffff16837f2f8788117e7eff1d82e926ec794901d17c78024a50270940304540a733656f0d60405160405180910390a45b5050565b60006001600084815260200190815260200160002060000160008373ffffffffffffffffffffffffffffffffffffffff1673ffffffffffffffffffffffffffffffffffffffff16815260200190815260200160002060009054906101000a900460ff16905092915050565b600080fd5b6000819050919050565b620003c381620003ae565b8114620003cf57600080fd5b50565b600081519050620003e381620003b8565b92915050565b600073ffffffffffffffffffffffffffffffffffffffff82169050919050565b60006200041682620003e9565b9050919050565b60006200042a8262000409565b9050919050565b6200043c816200041d565b81146200044857600080fd5b50565b6000815190506200045c8162000431565b92915050565b6000806000606084860312156200047e576200047d620003a9565b5b60006200048e86828701620003d2565b9350506020620004a186828701620003d2565b9250506040620004b4868287016200044b565b9150509250925092565b7f4e487b7100000000000000000000000000000000000000000000000000000000600052601160045260246000fd5b60008160011c9050919050565b6000808291508390505b60018511156200054c57808604811115620005245762000523620004be565b5b6001851615620005345780820291505b80810290506200054485620004ed565b945062000504565b94509492505050565b6000826200056757600190506200063a565b816200057757600090506200063a565b81600181146200059057600281146200059b57620005d1565b60019150506200063a565b60ff841115620005b057620005af620004be565b5b8360020a915084821115620005ca57620005c9620004be565b5b506200063a565b5060208310610133831016604e8410600b84101617156200060b5782820a905083811115620006055762000604620004be565b5b6200063a565b6200061a8484846001620004fa565b92509050818404811115620006345762000633620004be565b5b81810290505b9392505050565b60006200064e82620003ae565b91506200065b83620003ae565b92506200068a7fffffffffffffffffffffffffffffffffffffffffffffffffffffffffffffffff848462000555565b905092915050565b60006200069f82620003ae565b9150620006ac83620003ae565b9250817fffffffffffffffffffffffffffffffffffffffffffffffffffffffffffffffff0483118215151615620006e857620006e7620004be565b5b828202905092915050565b6126f680620007036000396000f3fe6080604052600436106101bb5760003560e01c80638cf59bc7116100ec578063bf4bf2ae1161008a578063e28c817211610064578063e28c817214610618578063e928890c14610641578063ec1cb1941461066c578063f2fde38b14610695576101fb565b8063bf4bf2ae1461059d578063c58a34cc146105c6578063d547741f146105ef576101fb565b806392eb0af4116100c657806392eb0af4146104f3578063a217fddf1461051c578063a9a7ff2914610547578063bf027e8614610572576101fb565b80638cf59bc7146104625780638da5cb5b1461048b57806391d14854146104b6576101fb565b806357980e681161015957806370dea79a1161013357806370dea79a146103ca578063715018a6146103f557806375b238fc1461040c57806376e1032a14610437576101fb565b806357980e681461034d5780636c40bc15146103785780636c5a7d1e146103a1576101fb565b8063313ce56711610195578063313ce567146102a357806335a1529b146102ce57806336568abe146102f957806350283e4314610322576101fb565b806301ffc9a714610200578063248a9ca31461023d5780632f2ff15d1461027a576101fb565b366101fb577f52a6cdf67c40ce333b3d846e4e143db87f71dd7935612a4cafcf6ba76047ca1f33346040516101f1929190611842565b60405180910390a1005b600080fd5b34801561020c57600080fd5b50610227600480360381019061022291906118c8565b6106be565b6040516102349190611910565b60405180910390f35b34801561024957600080fd5b50610264600480360381019061025f9190611961565b610738565b604051610271919061199d565b60405180910390f35b34801561028657600080fd5b506102a1600480360381019061029c91906119e4565b610758565b005b3480156102af57600080fd5b506102b8610781565b6040516102c59190611a24565b60405180910390f35b3480156102da57600080fd5b506102e3610787565b6040516102f09190611a24565b60405180910390f35b34801561030557600080fd5b50610320600480360381019061031b91906119e4565b61078d565b005b34801561032e57600080fd5b50610337610810565b6040516103449190611a24565b60405180910390f35b34801561035957600080fd5b50610362610816565b60405161036f9190611a24565b60405180910390f35b34801561038457600080fd5b5061039f600480360381019061039a9190611a6b565b61081c565b005b3480156103ad57600080fd5b506103c860048036038101906103c39190611ad7565b610871565b005b3480156103d657600080fd5b506103df6108c1565b6040516103ec9190611a24565b60405180910390f35b34801561040157600080fd5b5061040a6108c7565b005b34801561041857600080fd5b5061042161094f565b60405161042e919061199d565b60405180910390f35b34801561044357600080fd5b5061044c610973565b6040516104599190611910565b60405180910390f35b34801561046e57600080fd5b5061048960048036038101906104849190611b42565b610986565b005b34801561049757600080fd5b506104a0610a4c565b6040516104ad9190611b6f565b60405180910390f35b3480156104c257600080fd5b506104dd60048036038101906104d891906119e4565b610a75565b6040516104ea9190611910565b60405180910390f35b3480156104ff57600080fd5b5061051a60048036038101906105159190611b42565b610ae0565b005b34801561052857600080fd5b50610531610f91565b60405161053e919061199d565b60405180910390f35b34801561055357600080fd5b5061055c610f98565b6040516105699190611a24565b60405180910390f35b34801561057e57600080fd5b50610587610f9e565b6040516105949190611be9565b60405180910390f35b3480156105a957600080fd5b506105c460048036038101906105bf9190611c04565b610fc4565b005b3480156105d257600080fd5b506105ed60048036038101906105e89190611c04565b611001565b005b3480156105fb57600080fd5b50610616600480360381019061061191906119e4565b61103e565b005b34801561062457600080fd5b5061063f600480360381019061063a9190611ad7565b611067565b005b34801561064d57600080fd5b506106566110b7565b6040516106639190611910565b60405180910390f35b34801561067857600080fd5b50610693600480360381019061068e9190611a6b565b6110ca565b005b3480156106a157600080fd5b506106bc60048036038101906106b79190611c31565b61111f565b005b60007f7965db0b000000000000000000000000000000000000000000000000000000007bffffffffffffffffffffffffffffffffffffffffffffffffffffffff1916827bffffffffffffffffffffffffffffffffffffffffffffffffffffffff19161480610731575061073082611217565b5b9050919050565b600060016000838152602001908152602001600020600101549050919050565b61076182610738565b6107728161076d611281565b611289565b61077c8383611326565b505050565b60065481565b60055481565b610795611281565b73ffffffffffffffffffffffffffffffffffffffff168173ffffffffffffffffffffffffffffffffffffffff1614610802576040517f08c379a00000000000000000000000000000000000000000000000000000000081526004016107f990611ce1565b60405180910390fd5b61080c8282611406565b5050565b60045481565b60035481565b7fa49807205ce4d355092ef5a8a18f56e8913cf4a201fbe287825b095693c2177561084e81610849611281565b611289565b81600a61085b9190611e63565b836108669190611eae565b600581905550505050565b7fa49807205ce4d355092ef5a8a18f56e8913cf4a201fbe287825b095693c217756108a38161089e611281565b611289565b81600860006101000a81548160ff0219169083151502179055505050565b60075481565b6108cf611281565b73ffffffffffffffffffffffffffffffffffffffff166108ed610a4c565b73ffffffffffffffffffffffffffffffffffffffff1614610943576040517f08c379a000000000000000000000000000000000000000000000000000000000815260040161093a90611f54565b60405180910390fd5b61094d60006114e8565b565b7fa49807205ce4d355092ef5a8a18f56e8913cf4a201fbe287825b095693c2177581565b600860019054906101000a900460ff1681565b61098e611281565b73ffffffffffffffffffffffffffffffffffffffff166109ac610a4c565b73ffffffffffffffffffffffffffffffffffffffff1614610a02576040517f08c379a00000000000000000000000000000000000000000000000000000000081526004016109f990611f54565b60405180910390fd5b8073ffffffffffffffffffffffffffffffffffffffff166108fc479081150290604051600060405180830381858888f19350505050158015610a48573d6000803e3d6000fd5b5050565b60008060009054906101000a900473ffffffffffffffffffffffffffffffffffffffff16905090565b60006001600084815260200190815260200160002060000160008373ffffffffffffffffffffffffffffffffffffffff1673ffffffffffffffffffffffffffffffffffffffff16815260200190815260200160002060009054906101000a900460ff16905092915050565b600860009054906101000a900460ff1615610b30576040517f08c379a0000000000000000000000000000000000000000000000000000000008152600401610b2790611fc0565b60405180910390fd5b600060095414610b97576009548173ffffffffffffffffffffffffffffffffffffffff16311115610b96576040517f08c379a0000000000000000000000000000000000000000000000000000000008152600401610b8d9061202c565b60405180910390fd5b5b600354600260009054906101000a900473ffffffffffffffffffffffffffffffffffffffff1673ffffffffffffffffffffffffffffffffffffffff166370a08231836040518263ffffffff1660e01b8152600401610bf5919061206d565b60206040518083038186803b158015610c0d57600080fd5b505afa158015610c21573d6000803e3d6000fd5b505050506040513d601f19601f82011682018060405250810190610c45919061209d565b1015610c86576040517f08c379a0000000000000000000000000000000000000000000000000000000008152600401610c7d90612116565b60405180910390fd5b600860019054906101000a900460ff1615610d2957600a60008273ffffffffffffffffffffffffffffffffffffffff1673ffffffffffffffffffffffffffffffffffffffff16815260200190815260200160002060009054906101000a900460ff1615610d28576040517f08c379a0000000000000000000000000000000000000000000000000000000008152600401610d1f90612182565b60405180910390fd5b5b600060075414610db65742600b60008373ffffffffffffffffffffffffffffffffffffffff1673ffffffffffffffffffffffffffffffffffffffff168152602001908152602001600020541115610db5576040517f08c379a0000000000000000000000000000000000000000000000000000000008152600401610dac906121ee565b60405180910390fd5b5b600554471015610dfb576040517f08c379a0000000000000000000000000000000000000000000000000000000008152600401610df29061225a565b60405180910390fd5b60008173ffffffffffffffffffffffffffffffffffffffff16600554604051610e23906122ab565b60006040518083038185875af1925050503d8060008114610e60576040519150601f19603f3d011682016040523d82523d6000602084013e610e65565b606091505b5050905080610ea9576040517f08c379a0000000000000000000000000000000000000000000000000000000008152600401610ea09061230c565b60405180910390fd5b60075442610eb7919061232c565b600b60008473ffffffffffffffffffffffffffffffffffffffff1673ffffffffffffffffffffffffffffffffffffffff168152602001908152602001600020819055506001600a60008473ffffffffffffffffffffffffffffffffffffffff1673ffffffffffffffffffffffffffffffffffffffff16815260200190815260200160002060006101000a81548160ff0219169083151502179055507f1df031d1f1f18193c7c7f2237f14bca5f9ad49130c4b5a5ac229b74982a4bf0f33600554604051610f85929190611842565b60405180910390a15050565b6000801b81565b60095481565b600260009054906101000a900473ffffffffffffffffffffffffffffffffffffffff1681565b7fa49807205ce4d355092ef5a8a18f56e8913cf4a201fbe287825b095693c21775610ff681610ff1611281565b611289565b816009819055505050565b7fa49807205ce4d355092ef5a8a18f56e8913cf4a201fbe287825b095693c217756110338161102e611281565b611289565b816007819055505050565b61104782610738565b61105881611053611281565b611289565b6110628383611406565b505050565b7fa49807205ce4d355092ef5a8a18f56e8913cf4a201fbe287825b095693c2177561109981611094611281565b611289565b81600860016101000a81548160ff0219169083151502179055505050565b600860009054906101000a900460ff1681565b7fa49807205ce4d355092ef5a8a18f56e8913cf4a201fbe287825b095693c217756110fc816110f7611281565b611289565b81600a6111099190611e63565b836111149190611eae565b600381905550505050565b611127611281565b73ffffffffffffffffffffffffffffffffffffffff16611145610a4c565b73ffffffffffffffffffffffffffffffffffffffff161461119b576040517f08c379a000000000000000000000000000000000000000000000000000000000815260040161119290611f54565b60405180910390fd5b600073ffffffffffffffffffffffffffffffffffffffff168173ffffffffffffffffffffffffffffffffffffffff16141561120b576040517f08c379a0000000000000000000000000000000000000000000000000000000008152600401611202906123f4565b60405180910390fd5b611214816114e8565b50565b60007f01ffc9a7000000000000000000000000000000000000000000000000000000007bffffffffffffffffffffffffffffffffffffffffffffffffffffffff1916827bffffffffffffffffffffffffffffffffffffffffffffffffffffffff1916149050919050565b600033905090565b6112938282610a75565b611322576112b88173ffffffffffffffffffffffffffffffffffffffff1660146115ac565b6112c68360001c60206115ac565b6040516020016112d7929190612526565b6040516020818303038152906040526040517f08c379a000000000000000000000000000000000000000000000000000000000815260040161131991906125aa565b60405180910390fd5b5050565b6113308282610a75565b61140257600180600084815260200190815260200160002060000160008373ffffffffffffffffffffffffffffffffffffffff1673ffffffffffffffffffffffffffffffffffffffff16815260200190815260200160002060006101000a81548160ff0219169083151502179055506113a7611281565b73ffffffffffffffffffffffffffffffffffffffff168173ffffffffffffffffffffffffffffffffffffffff16837f2f8788117e7eff1d82e926ec794901d17c78024a50270940304540a733656f0d60405160405180910390a45b5050565b6114108282610a75565b156114e45760006001600084815260200190815260200160002060000160008373ffffffffffffffffffffffffffffffffffffffff1673ffffffffffffffffffffffffffffffffffffffff16815260200190815260200160002060006101000a81548160ff021916908315150217905550611489611281565b73ffffffffffffffffffffffffffffffffffffffff168173ffffffffffffffffffffffffffffffffffffffff16837ff6391f5c32d9c69d2a47ea670b442974b53935d1edc7fd64eb21e047a839171b60405160405180910390a45b5050565b60008060009054906101000a900473ffffffffffffffffffffffffffffffffffffffff169050816000806101000a81548173ffffffffffffffffffffffffffffffffffffffff021916908373ffffffffffffffffffffffffffffffffffffffff1602179055508173ffffffffffffffffffffffffffffffffffffffff168173ffffffffffffffffffffffffffffffffffffffff167f8be0079c531659141344cd1fd0a4f28419497f9722a3daafe3b4186f6b6457e060405160405180910390a35050565b6060600060028360026115bf9190611eae565b6115c9919061232c565b67ffffffffffffffff8111156115e2576115e16125cc565b5b6040519080825280601f01601f1916602001820160405280156116145781602001600182028036833780820191505090505b5090507f30000000000000000000000000000000000000000000000000000000000000008160008151811061164c5761164b6125fb565b5b60200101907effffffffffffffffffffffffffffffffffffffffffffffffffffffffffffff1916908160001a9053507f7800000000000000000000000000000000000000000000000000000000000000816001815181106116b0576116af6125fb565b5b60200101907effffffffffffffffffffffffffffffffffffffffffffffffffffffffffffff1916908160001a905350600060018460026116f09190611eae565b6116fa919061232c565b90505b600181111561179a577f3031323334353637383961626364656600000000000000000000000000000000600f86166010811061173c5761173b6125fb565b5b1a60f81b828281518110611753576117526125fb565b5b60200101907effffffffffffffffffffffffffffffffffffffffffffffffffffffffffffff1916908160001a905350600485901c9450806117939061262a565b90506116fd565b50600084146117de576040517f08c379a00000000000000000000000000000000000000000000000000000000081526004016117d5906126a0565b60405180910390fd5b8091505092915050565b600073ffffffffffffffffffffffffffffffffffffffff82169050919050565b6000611813826117e8565b9050919050565b61182381611808565b82525050565b6000819050919050565b61183c81611829565b82525050565b6000604082019050611857600083018561181a565b6118646020830184611833565b9392505050565b600080fd5b60007fffffffff0000000000000000000000000000000000000000000000000000000082169050919050565b6118a581611870565b81146118b057600080fd5b50565b6000813590506118c28161189c565b92915050565b6000602082840312156118de576118dd61186b565b5b60006118ec848285016118b3565b91505092915050565b60008115159050919050565b61190a816118f5565b82525050565b60006020820190506119256000830184611901565b92915050565b6000819050919050565b61193e8161192b565b811461194957600080fd5b50565b60008135905061195b81611935565b92915050565b6000602082840312156119775761197661186b565b5b60006119858482850161194c565b91505092915050565b6119978161192b565b82525050565b60006020820190506119b2600083018461198e565b92915050565b6119c181611808565b81146119cc57600080fd5b50565b6000813590506119de816119b8565b92915050565b600080604083850312156119fb576119fa61186b565b5b6000611a098582860161194c565b9250506020611a1a858286016119cf565b9150509250929050565b6000602082019050611a396000830184611833565b92915050565b611a4881611829565b8114611a5357600080fd5b50565b600081359050611a6581611a3f565b92915050565b60008060408385031215611a8257611a8161186b565b5b6000611a9085828601611a56565b9250506020611aa185828601611a56565b9150509250929050565b611ab4816118f5565b8114611abf57600080fd5b50565b600081359050611ad181611aab565b92915050565b600060208284031215611aed57611aec61186b565b5b6000611afb84828501611ac2565b91505092915050565b6000611b0f826117e8565b9050919050565b611b1f81611b04565b8114611b2a57600080fd5b50565b600081359050611b3c81611b16565b92915050565b600060208284031215611b5857611b5761186b565b5b6000611b6684828501611b2d565b91505092915050565b6000602082019050611b84600083018461181a565b92915050565b6000819050919050565b6000611baf611baa611ba5846117e8565b611b8a565b6117e8565b9050919050565b6000611bc182611b94565b9050919050565b6000611bd382611bb6565b9050919050565b611be381611bc8565b82525050565b6000602082019050611bfe6000830184611bda565b92915050565b600060208284031215611c1a57611c1961186b565b5b6000611c2884828501611a56565b91505092915050565b600060208284031215611c4757611c4661186b565b5b6000611c55848285016119cf565b91505092915050565b600082825260208201905092915050565b7f416363657373436f6e74726f6c3a2063616e206f6e6c792072656e6f756e636560008201527f20726f6c657320666f722073656c660000000000000000000000000000000000602082015250565b6000611ccb602f83611c5e565b9150611cd682611c6f565b604082019050919050565b60006020820190508181036000830152611cfa81611cbe565b9050919050565b7f4e487b7100000000000000000000000000000000000000000000000000000000600052601160045260246000fd5b60008160011c9050919050565b6000808291508390505b6001851115611d8757808604811115611d6357611d62611d01565b5b6001851615611d725780820291505b8081029050611d8085611d30565b9450611d47565b94509492505050565b600082611da05760019050611e5c565b81611dae5760009050611e5c565b8160018114611dc45760028114611dce57611dfd565b6001915050611e5c565b60ff841115611de057611ddf611d01565b5b8360020a915084821115611df757611df6611d01565b5b50611e5c565b5060208310610133831016604e8410600b8410161715611e325782820a905083811115611e2d57611e2c611d01565b5b611e5c565b611e3f8484846001611d3d565b92509050818404811115611e5657611e55611d01565b5b81810290505b9392505050565b6000611e6e82611829565b9150611e7983611829565b9250611ea67fffffffffffffffffffffffffffffffffffffffffffffffffffffffffffffffff8484611d90565b905092915050565b6000611eb982611829565b9150611ec483611829565b9250817fffffffffffffffffffffffffffffffffffffffffffffffffffffffffffffffff0483118215151615611efd57611efc611d01565b5b828202905092915050565b7f4f776e61626c653a2063616c6c6572206973206e6f7420746865206f776e6572600082015250565b6000611f3e602083611c5e565b9150611f4982611f08565b602082019050919050565b60006020820190508181036000830152611f6d81611f31565b9050919050565b7f64697361626c6564000000000000000000000000000000000000000000000000600082015250565b6000611faa600883611c5e565b9150611fb582611f74565b602082019050919050565b60006020820190508181036000830152611fd981611f9d565b9050919050565b7f6e6f206e65656400000000000000000000000000000000000000000000000000600082015250565b6000612016600783611c5e565b915061202182611fe0565b602082019050919050565b6000602082019050818103600083015261204581612009565b9050919050565b600061205782611bb6565b9050919050565b6120678161204c565b82525050565b6000602082019050612082600083018461205e565b92915050565b60008151905061209781611a3f565b92915050565b6000602082840312156120b3576120b261186b565b5b60006120c184828501612088565b91505092915050565b7f6d697373696e6720657263323000000000000000000000000000000000000000600082015250565b6000612100600d83611c5e565b915061210b826120ca565b602082019050919050565b6000602082019050818103600083015261212f816120f3565b9050919050565b7f7573656400000000000000000000000000000000000000000000000000000000600082015250565b600061216c600483611c5e565b915061217782612136565b602082019050919050565b6000602082019050818103600083015261219b8161215f565b9050919050565b7f74696d656f757400000000000000000000000000000000000000000000000000600082015250565b60006121d8600783611c5e565b91506121e3826121a2565b602082019050919050565b60006020820190508181036000830152612207816121cb565b9050919050565b7f6472790000000000000000000000000000000000000000000000000000000000600082015250565b6000612244600383611c5e565b915061224f8261220e565b602082019050919050565b6000602082019050818103600083015261227381612237565b9050919050565b600081905092915050565b50565b600061229560008361227a565b91506122a082612285565b600082019050919050565b60006122b682612288565b9150819050919050565b7f73656e64206661696c6564000000000000000000000000000000000000000000600082015250565b60006122f6600b83611c5e565b9150612301826122c0565b602082019050919050565b60006020820190508181036000830152612325816122e9565b9050919050565b600061233782611829565b915061234283611829565b9250827fffffffffffffffffffffffffffffffffffffffffffffffffffffffffffffffff0382111561237757612376611d01565b5b828201905092915050565b7f4f776e61626c653a206e6577206f776e657220697320746865207a65726f206160008201527f6464726573730000000000000000000000000000000000000000000000000000602082015250565b60006123de602683611c5e565b91506123e982612382565b604082019050919050565b6000602082019050818103600083015261240d816123d1565b9050919050565b600081905092915050565b7f416363657373436f6e74726f6c3a206163636f756e7420000000000000000000600082015250565b6000612455601783612414565b91506124608261241f565b601782019050919050565b600081519050919050565b60005b83811015612494578082015181840152602081019050612479565b838111156124a3576000848401525b50505050565b60006124b48261246b565b6124be8185612414565b93506124ce818560208601612476565b80840191505092915050565b7f206973206d697373696e6720726f6c6520000000000000000000000000000000600082015250565b6000612510601183612414565b915061251b826124da565b601182019050919050565b600061253182612448565b915061253d82856124a9565b915061254882612503565b915061255482846124a9565b91508190509392505050565b6000601f19601f8301169050919050565b600061257c8261246b565b6125868185611c5e565b9350612596818560208601612476565b61259f81612560565b840191505092915050565b600060208201905081810360008301526125c48184612571565b905092915050565b7f4e487b7100000000000000000000000000000000000000000000000000000000600052604160045260246000fd5b7f4e487b7100000000000000000000000000000000000000000000000000000000600052603260045260246000fd5b600061263582611829565b9150600082141561264957612648611d01565b5b600182039050919050565b7f537472696e67733a20686578206c656e67746820696e73756666696369656e74600082015250565b600061268a602083611c5e565b915061269582612654565b602082019050919050565b600060208201905081810360008301526126b98161267d565b905091905056fea264697066735822122027231023dde62b3da62b1f9a2dbdc18d346c336ad6ae5c8b1de761f63e08b19864736f6c63430008090033",
  "linkReferences": {},
  "deployedLinkReferences": {}
}