{
    "_format": "hh-sol-artifact-1",
    "contractName": "Fweb3TokenFaucet",
    "sourceName": "contracts/Fweb3TokenFaucet.sol",
    "abi": [
        {
            "inputs": [
                {
                    "internalType": "contract ERC20",
                    "name": "_erc20Token",
                    "type": "address"
                },
                {
                    "internalType": "uint256",
                    "name": "_dripAmount",
                    "type": "uint256"
                },
                {
                    "internalType": "uint256",
                    "name": "_decimals",
                    "type": "uint256"
                }
            ],
            "stateMutability": "nonpayable",
            "type": "constructor"
        },
        {
            "anonymous": false,
            "inputs": [
                {
                    "indexed": false,
                    "internalType": "address",
                    "name": "",
                    "type": "address"
                },
                {
                    "indexed": false,
                    "internalType": "uint256",
                    "name": "",
                    "type": "uint256"
                }
            ],
            "name": "DrippedErc20",
            "type": "event"
        },
        {
            "anonymous": false,
            "inputs": [
                {
                    "indexed": true,
                    "internalType": "address",
                    "name": "previousOwner",
                    "type": "address"
                },
                {
                    "indexed": true,
                    "internalType": "address",
                    "name": "newOwner",
                    "type": "address"
                }
            ],
            "name": "OwnershipTransferred",
            "type": "event"
        },
        {
            "anonymous": false,
            "inputs": [
                {
                    "indexed": false,
                    "internalType": "address",
                    "name": "",
                    "type": "address"
                },
                {
                    "indexed": false,
                    "internalType": "uint256",
                    "name": "",
                    "type": "uint256"
                }
            ],
            "name": "ReceivedEth",
            "type": "event"
        },
        {
            "anonymous": false,
            "inputs": [
                {
                    "indexed": true,
                    "internalType": "bytes32",
                    "name": "role",
                    "type": "bytes32"
                },
                {
                    "indexed": true,
                    "internalType": "bytes32",
                    "name": "previousAdminRole",
                    "type": "bytes32"
                },
                {
                    "indexed": true,
                    "internalType": "bytes32",
                    "name": "newAdminRole",
                    "type": "bytes32"
                }
            ],
            "name": "RoleAdminChanged",
            "type": "event"
        },
        {
            "anonymous": false,
            "inputs": [
                {
                    "indexed": true,
                    "internalType": "bytes32",
                    "name": "role",
                    "type": "bytes32"
                },
                {
                    "indexed": true,
                    "internalType": "address",
                    "name": "account",
                    "type": "address"
                },
                {
                    "indexed": true,
                    "internalType": "address",
                    "name": "sender",
                    "type": "address"
                }
            ],
            "name": "RoleGranted",
            "type": "event"
        },
        {
            "anonymous": false,
            "inputs": [
                {
                    "indexed": true,
                    "internalType": "bytes32",
                    "name": "role",
                    "type": "bytes32"
                },
                {
                    "indexed": true,
                    "internalType": "address",
                    "name": "account",
                    "type": "address"
                },
                {
                    "indexed": true,
                    "internalType": "address",
                    "name": "sender",
                    "type": "address"
                }
            ],
            "name": "RoleRevoked",
            "type": "event"
        },
        {
            "inputs": [],
            "name": "ADMIN_ROLE",
            "outputs": [
                {
                    "internalType": "bytes32",
                    "name": "",
                    "type": "bytes32"
                }
            ],
            "stateMutability": "view",
            "type": "function"
        },
        {
            "inputs": [],
            "name": "DEFAULT_ADMIN_ROLE",
            "outputs": [
                {
                    "internalType": "bytes32",
                    "name": "",
                    "type": "bytes32"
                }
            ],
            "stateMutability": "view",
            "type": "function"
        },
        {
            "inputs": [
                {
                    "internalType": "address",
                    "name": "forWhom",
                    "type": "address"
                }
            ],
            "name": "clearTimeout",
            "outputs": [],
            "stateMutability": "nonpayable",
            "type": "function"
        },
        {
            "inputs": [],
            "name": "decimals",
            "outputs": [
                {
                    "internalType": "uint256",
                    "name": "",
                    "type": "uint256"
                }
            ],
            "stateMutability": "view",
            "type": "function"
        },
        {
            "inputs": [
                {
                    "internalType": "address payable",
                    "name": "to",
                    "type": "address"
                }
            ],
            "name": "drainErc20",
            "outputs": [],
            "stateMutability": "nonpayable",
            "type": "function"
        },
        {
            "inputs": [
                {
                    "internalType": "address payable",
                    "name": "to",
                    "type": "address"
                }
            ],
            "name": "drainEth",
            "outputs": [],
            "stateMutability": "nonpayable",
            "type": "function"
        },
        {
            "inputs": [],
            "name": "dripAmount",
            "outputs": [
                {
                    "internalType": "uint256",
                    "name": "",
                    "type": "uint256"
                }
            ],
            "stateMutability": "view",
            "type": "function"
        },
        {
            "inputs": [
                {
                    "internalType": "address payable",
                    "name": "to",
                    "type": "address"
                }
            ],
            "name": "dripFweb3",
            "outputs": [],
            "stateMutability": "nonpayable",
            "type": "function"
        },
        {
            "inputs": [],
            "name": "erc20Token",
            "outputs": [
                {
                    "internalType": "contract ERC20",
                    "name": "",
                    "type": "address"
                }
            ],
            "stateMutability": "view",
            "type": "function"
        },
        {
            "inputs": [],
            "name": "faucetDisabled",
            "outputs": [
                {
                    "internalType": "bool",
                    "name": "",
                    "type": "bool"
                }
            ],
            "stateMutability": "view",
            "type": "function"
        },
        {
            "inputs": [
                {
                    "internalType": "bytes32",
                    "name": "role",
                    "type": "bytes32"
                }
            ],
            "name": "getRoleAdmin",
            "outputs": [
                {
                    "internalType": "bytes32",
                    "name": "",
                    "type": "bytes32"
                }
            ],
            "stateMutability": "view",
            "type": "function"
        },
        {
            "inputs": [
                {
                    "internalType": "bytes32",
                    "name": "role",
                    "type": "bytes32"
                },
                {
                    "internalType": "address",
                    "name": "account",
                    "type": "address"
                }
            ],
            "name": "grantRole",
            "outputs": [],
            "stateMutability": "nonpayable",
            "type": "function"
        },
        {
            "inputs": [
                {
                    "internalType": "bytes32",
                    "name": "role",
                    "type": "bytes32"
                },
                {
                    "internalType": "address",
                    "name": "account",
                    "type": "address"
                }
            ],
            "name": "hasRole",
            "outputs": [
                {
                    "internalType": "bool",
                    "name": "",
                    "type": "bool"
                }
            ],
            "stateMutability": "view",
            "type": "function"
        },
        {
            "inputs": [],
            "name": "holderLimit",
            "outputs": [
                {
                    "internalType": "uint256",
                    "name": "",
                    "type": "uint256"
                }
            ],
            "stateMutability": "view",
            "type": "function"
        },
        {
            "inputs": [],
            "name": "owner",
            "outputs": [
                {
                    "internalType": "address",
                    "name": "",
                    "type": "address"
                }
            ],
            "stateMutability": "view",
            "type": "function"
        },
        {
            "inputs": [],
            "name": "renounceOwnership",
            "outputs": [],
            "stateMutability": "nonpayable",
            "type": "function"
        },
        {
            "inputs": [
                {
                    "internalType": "bytes32",
                    "name": "role",
                    "type": "bytes32"
                },
                {
                    "internalType": "address",
                    "name": "account",
                    "type": "address"
                }
            ],
            "name": "renounceRole",
            "outputs": [],
            "stateMutability": "nonpayable",
            "type": "function"
        },
        {
            "inputs": [
                {
                    "internalType": "bytes32",
                    "name": "role",
                    "type": "bytes32"
                },
                {
                    "internalType": "address",
                    "name": "account",
                    "type": "address"
                }
            ],
            "name": "revokeRole",
            "outputs": [],
            "stateMutability": "nonpayable",
            "type": "function"
        },
        {
            "inputs": [
                {
                    "internalType": "bool",
                    "name": "val",
                    "type": "bool"
                }
            ],
            "name": "setDisableFaucet",
            "outputs": [],
            "stateMutability": "nonpayable",
            "type": "function"
        },
        {
            "inputs": [
                {
                    "internalType": "uint256",
                    "name": "amount",
                    "type": "uint256"
                },
                {
                    "internalType": "uint256",
                    "name": "_decimals",
                    "type": "uint256"
                }
            ],
            "name": "setDripAmount",
            "outputs": [],
            "stateMutability": "nonpayable",
            "type": "function"
        },
        {
            "inputs": [
                {
                    "internalType": "uint256",
                    "name": "limit",
                    "type": "uint256"
                }
            ],
            "name": "setHolderLimit",
            "outputs": [],
            "stateMutability": "nonpayable",
            "type": "function"
        },
        {
            "inputs": [
                {
                    "internalType": "bool",
                    "name": "shouldBeSingleUse",
                    "type": "bool"
                }
            ],
            "name": "setSingleUse",
            "outputs": [],
            "stateMutability": "nonpayable",
            "type": "function"
        },
        {
            "inputs": [
                {
                    "internalType": "uint256",
                    "name": "newTimeout",
                    "type": "uint256"
                }
            ],
            "name": "setTimeout",
            "outputs": [],
            "stateMutability": "nonpayable",
            "type": "function"
        },
        {
            "inputs": [],
            "name": "singleUse",
            "outputs": [
                {
                    "internalType": "bool",
                    "name": "",
                    "type": "bool"
                }
            ],
            "stateMutability": "view",
            "type": "function"
        },
        {
            "inputs": [
                {
                    "internalType": "bytes4",
                    "name": "interfaceId",
                    "type": "bytes4"
                }
            ],
            "name": "supportsInterface",
            "outputs": [
                {
                    "internalType": "bool",
                    "name": "",
                    "type": "bool"
                }
            ],
            "stateMutability": "view",
            "type": "function"
        },
        {
            "inputs": [],
            "name": "timeout",
            "outputs": [
                {
                    "internalType": "uint256",
                    "name": "",
                    "type": "uint256"
                }
            ],
            "stateMutability": "view",
            "type": "function"
        },
        {
            "inputs": [
                {
                    "internalType": "address",
                    "name": "newOwner",
                    "type": "address"
                }
            ],
            "name": "transferOwnership",
            "outputs": [],
            "stateMutability": "nonpayable",
            "type": "function"
        },
        {
            "inputs": [],
            "name": "useHolderLimit",
            "outputs": [
                {
                    "internalType": "bool",
                    "name": "",
                    "type": "bool"
                }
            ],
            "stateMutability": "view",
            "type": "function"
        },
        {
            "stateMutability": "payable",
            "type": "receive"
        }
    ],
    "bytecode": "0x60806040523480156200001157600080fd5b50604051620032203803806200322083398181016040528101906200003791906200043b565b620000576200004b6200014460201b60201c565b6200014c60201b60201c565b6200006c6000801b336200021060201b60201c565b6200009e7fa49807205ce4d355092ef5a8a18f56e8913cf4a201fbe287825b095693c21775336200021060201b60201c565b82600260006101000a81548173ffffffffffffffffffffffffffffffffffffffff021916908373ffffffffffffffffffffffffffffffffffffffff16021790555080600a620000ee91906200061a565b82620000fb91906200066b565b6003819055508060048190555060006005819055506001600660016101000a81548160ff021916908315150217905550681043561a8829300000600781905550505050620006cc565b600033905090565b60008060009054906101000a900473ffffffffffffffffffffffffffffffffffffffff169050816000806101000a81548173ffffffffffffffffffffffffffffffffffffffff021916908373ffffffffffffffffffffffffffffffffffffffff1602179055508173ffffffffffffffffffffffffffffffffffffffff168173ffffffffffffffffffffffffffffffffffffffff167f8be0079c531659141344cd1fd0a4f28419497f9722a3daafe3b4186f6b6457e060405160405180910390a35050565b6200022282826200022660201b60201c565b5050565b6200023882826200031760201b60201c565b6200031357600180600084815260200190815260200160002060000160008373ffffffffffffffffffffffffffffffffffffffff1673ffffffffffffffffffffffffffffffffffffffff16815260200190815260200160002060006101000a81548160ff021916908315150217905550620002b86200014460201b60201c565b73ffffffffffffffffffffffffffffffffffffffff168173ffffffffffffffffffffffffffffffffffffffff16837f2f8788117e7eff1d82e926ec794901d17c78024a50270940304540a733656f0d60405160405180910390a45b5050565b60006001600084815260200190815260200160002060000160008373ffffffffffffffffffffffffffffffffffffffff1673ffffffffffffffffffffffffffffffffffffffff16815260200190815260200160002060009054906101000a900460ff16905092915050565b600080fd5b600073ffffffffffffffffffffffffffffffffffffffff82169050919050565b6000620003b48262000387565b9050919050565b6000620003c882620003a7565b9050919050565b620003da81620003bb565b8114620003e657600080fd5b50565b600081519050620003fa81620003cf565b92915050565b6000819050919050565b620004158162000400565b81146200042157600080fd5b50565b60008151905062000435816200040a565b92915050565b60008060006060848603121562000457576200045662000382565b5b60006200046786828701620003e9565b93505060206200047a8682870162000424565b92505060406200048d8682870162000424565b9150509250925092565b7f4e487b7100000000000000000000000000000000000000000000000000000000600052601160045260246000fd5b60008160011c9050919050565b6000808291508390505b60018511156200052557808604811115620004fd57620004fc62000497565b5b60018516156200050d5780820291505b80810290506200051d85620004c6565b9450620004dd565b94509492505050565b60008262000540576001905062000613565b8162000550576000905062000613565b81600181146200056957600281146200057457620005aa565b600191505062000613565b60ff84111562000589576200058862000497565b5b8360020a915084821115620005a357620005a262000497565b5b5062000613565b5060208310610133831016604e8410600b8410161715620005e45782820a905083811115620005de57620005dd62000497565b5b62000613565b620005f38484846001620004d3565b925090508184048111156200060d576200060c62000497565b5b81810290505b9392505050565b6000620006278262000400565b9150620006348362000400565b9250620006637fffffffffffffffffffffffffffffffffffffffffffffffffffffffffffffffff84846200052e565b905092915050565b6000620006788262000400565b9150620006858362000400565b9250817fffffffffffffffffffffffffffffffffffffffffffffffffffffffffffffffff0483118215151615620006c157620006c062000497565b5b828202905092915050565b612b4480620006dc6000396000f3fe6080604052600436106101bb5760003560e01c806375b238fc116100ec5780639811572c1161008a578063d547741f11610064578063d547741f14610616578063e28c81721461063f578063e928890c14610668578063f2fde38b14610693576101fb565b80639811572c14610597578063a217fddf146105c2578063c58a34cc146105ed576101fb565b80638cf59bc7116100c65780638cf59bc7146104dd5780638d80c591146105065780638da5cb5b1461052f57806391d148541461055a576101fb565b806375b238fc1461045c57806376e1032a146104875780638a13eea7146104b2576101fb565b806335a1529b1161015957806363d459f91161013357806363d459f9146103c85780636c40bc15146103f157806370dea79a1461041a578063715018a614610445576101fb565b806335a1529b1461034957806336568abe14610374578063506e817d1461039d576101fb565b8063248a9ca311610195578063248a9ca31461028f57806325fe628e146102cc5780632f2ff15d146102f5578063313ce5671461031e576101fb565b806301ffc9a71461020057806306f91d591461023d5780631d691fb514610266576101fb565b366101fb577f52a6cdf67c40ce333b3d846e4e143db87f71dd7935612a4cafcf6ba76047ca1f33346040516101f1929190611c6b565b60405180910390a1005b600080fd5b34801561020c57600080fd5b5061022760048036038101906102229190611cf1565b6106bc565b6040516102349190611d39565b60405180910390f35b34801561024957600080fd5b50610264600480360381019061025f9190611d80565b610736565b005b34801561027257600080fd5b5061028d60048036038101906102889190611dd9565b610786565b005b34801561029b57600080fd5b506102b660048036038101906102b19190611e3c565b6107d6565b6040516102c39190611e78565b60405180910390f35b3480156102d857600080fd5b506102f360048036038101906102ee9190611ed1565b6107f6565b005b34801561030157600080fd5b5061031c60048036038101906103179190611f2a565b610e1f565b005b34801561032a57600080fd5b50610333610e48565b6040516103409190611f6a565b60405180910390f35b34801561035557600080fd5b5061035e610e4e565b60405161036b9190611f6a565b60405180910390f35b34801561038057600080fd5b5061039b60048036038101906103969190611f2a565b610e54565b005b3480156103a957600080fd5b506103b2610ed7565b6040516103bf9190611d39565b60405180910390f35b3480156103d457600080fd5b506103ef60048036038101906103ea9190611ed1565b610eea565b005b3480156103fd57600080fd5b5061041860048036038101906104139190611f85565b61110d565b005b34801561042657600080fd5b5061042f6111b2565b60405161043c9190611f6a565b60405180910390f35b34801561045157600080fd5b5061045a6111b8565b005b34801561046857600080fd5b50610471611240565b60405161047e9190611e78565b60405180910390f35b34801561049357600080fd5b5061049c611264565b6040516104a99190611d39565b60405180910390f35b3480156104be57600080fd5b506104c7611277565b6040516104d49190612024565b60405180910390f35b3480156104e957600080fd5b5061050460048036038101906104ff9190611ed1565b61129d565b005b34801561051257600080fd5b5061052d6004803603810190610528919061203f565b611363565b005b34801561053b57600080fd5b506105446113de565b604051610551919061206c565b60405180910390f35b34801561056657600080fd5b50610581600480360381019061057c9190611f2a565b611407565b60405161058e9190611d39565b60405180910390f35b3480156105a357600080fd5b506105ac611472565b6040516105b99190611f6a565b60405180910390f35b3480156105ce57600080fd5b506105d7611478565b6040516105e49190611e78565b60405180910390f35b3480156105f957600080fd5b50610614600480360381019061060f9190611d80565b61147f565b005b34801561062257600080fd5b5061063d60048036038101906106389190611f2a565b6114bc565b005b34801561064b57600080fd5b5061066660048036038101906106619190611dd9565b6114e5565b005b34801561067457600080fd5b5061067d611535565b60405161068a9190611d39565b60405180910390f35b34801561069f57600080fd5b506106ba60048036038101906106b5919061203f565b611548565b005b60007f7965db0b000000000000000000000000000000000000000000000000000000007bffffffffffffffffffffffffffffffffffffffffffffffffffffffff1916827bffffffffffffffffffffffffffffffffffffffffffffffffffffffff1916148061072f575061072e82611640565b5b9050919050565b7fa49807205ce4d355092ef5a8a18f56e8913cf4a201fbe287825b095693c21775610768816107636116aa565b6116b2565b670de0b6b3a76400008261077c91906120b6565b6007819055505050565b7fa49807205ce4d355092ef5a8a18f56e8913cf4a201fbe287825b095693c217756107b8816107b36116aa565b6116b2565b81600660006101000a81548160ff0219169083151502179055505050565b600060016000838152602001908152602001600020600101549050919050565b600660009054906101000a900460ff1615610846576040517f08c379a000000000000000000000000000000000000000000000000000000000815260040161083d9061216d565b60405180910390fd5b600354600260009054906101000a900473ffffffffffffffffffffffffffffffffffffffff1673ffffffffffffffffffffffffffffffffffffffff166370a08231306040518263ffffffff1660e01b81526004016108a4919061206c565b60206040518083038186803b1580156108bc57600080fd5b505afa1580156108d0573d6000803e3d6000fd5b505050506040513d601f19601f820116820180604052508101906108f491906121a2565b1015610935576040517f08c379a000000000000000000000000000000000000000000000000000000000815260040161092c9061221b565b60405180910390fd5b600754600260009054906101000a900473ffffffffffffffffffffffffffffffffffffffff1673ffffffffffffffffffffffffffffffffffffffff166370a08231836040518263ffffffff1660e01b8152600401610993919061225c565b60206040518083038186803b1580156109ab57600080fd5b505afa1580156109bf573d6000803e3d6000fd5b505050506040513d601f19601f820116820180604052508101906109e391906121a2565b10610a23576040517f08c379a0000000000000000000000000000000000000000000000000000000008152600401610a1a906122c3565b60405180910390fd5b600660019054906101000a900460ff1615610ac657600960008273ffffffffffffffffffffffffffffffffffffffff1673ffffffffffffffffffffffffffffffffffffffff16815260200190815260200160002060009054906101000a900460ff1615610ac5576040517f08c379a0000000000000000000000000000000000000000000000000000000008152600401610abc9061232f565b60405180910390fd5b5b600060055414610b535742600a60008373ffffffffffffffffffffffffffffffffffffffff1673ffffffffffffffffffffffffffffffffffffffff168152602001908152602001600020541115610b52576040517f08c379a0000000000000000000000000000000000000000000000000000000008152600401610b499061239b565b60405180910390fd5b5b600354600260009054906101000a900473ffffffffffffffffffffffffffffffffffffffff1673ffffffffffffffffffffffffffffffffffffffff166370a08231306040518263ffffffff1660e01b8152600401610bb1919061206c565b60206040518083038186803b158015610bc957600080fd5b505afa158015610bdd573d6000803e3d6000fd5b505050506040513d601f19601f82011682018060405250810190610c0191906121a2565b1015610c42576040517f08c379a0000000000000000000000000000000000000000000000000000000008152600401610c399061221b565b60405180910390fd5b6000600260009054906101000a900473ffffffffffffffffffffffffffffffffffffffff1673ffffffffffffffffffffffffffffffffffffffff1663a9059cbb836003546040518363ffffffff1660e01b8152600401610ca39291906123bb565b602060405180830381600087803b158015610cbd57600080fd5b505af1158015610cd1573d6000803e3d6000fd5b505050506040513d601f19601f82011682018060405250810190610cf591906123f9565b905080610d37576040517f08c379a0000000000000000000000000000000000000000000000000000000008152600401610d2e90612472565b60405180910390fd5b60055442610d459190612492565b600a60008473ffffffffffffffffffffffffffffffffffffffff1673ffffffffffffffffffffffffffffffffffffffff168152602001908152602001600020819055506001600960008473ffffffffffffffffffffffffffffffffffffffff1673ffffffffffffffffffffffffffffffffffffffff16815260200190815260200160002060006101000a81548160ff0219169083151502179055507fed4684b97478365fe7dfc618288e64c6179fdde8bf4d1cd04dc0d3335ee556f633600354604051610e13929190611c6b565b60405180910390a15050565b610e28826107d6565b610e3981610e346116aa565b6116b2565b610e43838361174f565b505050565b60045481565b60035481565b610e5c6116aa565b73ffffffffffffffffffffffffffffffffffffffff168173ffffffffffffffffffffffffffffffffffffffff1614610ec9576040517f08c379a0000000000000000000000000000000000000000000000000000000008152600401610ec09061255a565b60405180910390fd5b610ed3828261182f565b5050565b600860009054906101000a900460ff1681565b610ef26116aa565b73ffffffffffffffffffffffffffffffffffffffff16610f106113de565b73ffffffffffffffffffffffffffffffffffffffff1614610f66576040517f08c379a0000000000000000000000000000000000000000000000000000000008152600401610f5d906125c6565b60405180910390fd5b6000600260009054906101000a900473ffffffffffffffffffffffffffffffffffffffff1673ffffffffffffffffffffffffffffffffffffffff166370a08231306040518263ffffffff1660e01b8152600401610fc3919061206c565b60206040518083038186803b158015610fdb57600080fd5b505afa158015610fef573d6000803e3d6000fd5b505050506040513d601f19601f8201168201806040525081019061101391906121a2565b90506000600260009054906101000a900473ffffffffffffffffffffffffffffffffffffffff1673ffffffffffffffffffffffffffffffffffffffff1663a9059cbb84846040518363ffffffff1660e01b81526004016110749291906123bb565b602060405180830381600087803b15801561108e57600080fd5b505af11580156110a2573d6000803e3d6000fd5b505050506040513d601f19601f820116820180604052508101906110c691906123f9565b905080611108576040517f08c379a00000000000000000000000000000000000000000000000000000000081526004016110ff90612632565b60405180910390fd5b505050565b6111156116aa565b73ffffffffffffffffffffffffffffffffffffffff166111336113de565b73ffffffffffffffffffffffffffffffffffffffff1614611189576040517f08c379a0000000000000000000000000000000000000000000000000000000008152600401611180906125c6565b60405180910390fd5b8060048190555080600a61119d9190612785565b826111a891906120b6565b6003819055505050565b60055481565b6111c06116aa565b73ffffffffffffffffffffffffffffffffffffffff166111de6113de565b73ffffffffffffffffffffffffffffffffffffffff1614611234576040517f08c379a000000000000000000000000000000000000000000000000000000000815260040161122b906125c6565b60405180910390fd5b61123e6000611911565b565b7fa49807205ce4d355092ef5a8a18f56e8913cf4a201fbe287825b095693c2177581565b600660019054906101000a900460ff1681565b600260009054906101000a900473ffffffffffffffffffffffffffffffffffffffff1681565b6112a56116aa565b73ffffffffffffffffffffffffffffffffffffffff166112c36113de565b73ffffffffffffffffffffffffffffffffffffffff1614611319576040517f08c379a0000000000000000000000000000000000000000000000000000000008152600401611310906125c6565b60405180910390fd5b8073ffffffffffffffffffffffffffffffffffffffff166108fc479081150290604051600060405180830381858888f1935050505015801561135f573d6000803e3d6000fd5b5050565b7fa49807205ce4d355092ef5a8a18f56e8913cf4a201fbe287825b095693c21775611395816113906116aa565b6116b2565b6000600a60008473ffffffffffffffffffffffffffffffffffffffff1673ffffffffffffffffffffffffffffffffffffffff168152602001908152602001600020819055505050565b60008060009054906101000a900473ffffffffffffffffffffffffffffffffffffffff16905090565b60006001600084815260200190815260200160002060000160008373ffffffffffffffffffffffffffffffffffffffff1673ffffffffffffffffffffffffffffffffffffffff16815260200190815260200160002060009054906101000a900460ff16905092915050565b60075481565b6000801b81565b7fa49807205ce4d355092ef5a8a18f56e8913cf4a201fbe287825b095693c217756114b1816114ac6116aa565b6116b2565b816005819055505050565b6114c5826107d6565b6114d6816114d16116aa565b6116b2565b6114e0838361182f565b505050565b7fa49807205ce4d355092ef5a8a18f56e8913cf4a201fbe287825b095693c21775611517816115126116aa565b6116b2565b81600660016101000a81548160ff0219169083151502179055505050565b600660009054906101000a900460ff1681565b6115506116aa565b73ffffffffffffffffffffffffffffffffffffffff1661156e6113de565b73ffffffffffffffffffffffffffffffffffffffff16146115c4576040517f08c379a00000000000000000000000000000000000000000000000000000000081526004016115bb906125c6565b60405180910390fd5b600073ffffffffffffffffffffffffffffffffffffffff168173ffffffffffffffffffffffffffffffffffffffff161415611634576040517f08c379a000000000000000000000000000000000000000000000000000000000815260040161162b90612842565b60405180910390fd5b61163d81611911565b50565b60007f01ffc9a7000000000000000000000000000000000000000000000000000000007bffffffffffffffffffffffffffffffffffffffffffffffffffffffff1916827bffffffffffffffffffffffffffffffffffffffffffffffffffffffff1916149050919050565b600033905090565b6116bc8282611407565b61174b576116e18173ffffffffffffffffffffffffffffffffffffffff1660146119d5565b6116ef8360001c60206119d5565b604051602001611700929190612974565b6040516020818303038152906040526040517f08c379a000000000000000000000000000000000000000000000000000000000815260040161174291906129f8565b60405180910390fd5b5050565b6117598282611407565b61182b57600180600084815260200190815260200160002060000160008373ffffffffffffffffffffffffffffffffffffffff1673ffffffffffffffffffffffffffffffffffffffff16815260200190815260200160002060006101000a81548160ff0219169083151502179055506117d06116aa565b73ffffffffffffffffffffffffffffffffffffffff168173ffffffffffffffffffffffffffffffffffffffff16837f2f8788117e7eff1d82e926ec794901d17c78024a50270940304540a733656f0d60405160405180910390a45b5050565b6118398282611407565b1561190d5760006001600084815260200190815260200160002060000160008373ffffffffffffffffffffffffffffffffffffffff1673ffffffffffffffffffffffffffffffffffffffff16815260200190815260200160002060006101000a81548160ff0219169083151502179055506118b26116aa565b73ffffffffffffffffffffffffffffffffffffffff168173ffffffffffffffffffffffffffffffffffffffff16837ff6391f5c32d9c69d2a47ea670b442974b53935d1edc7fd64eb21e047a839171b60405160405180910390a45b5050565b60008060009054906101000a900473ffffffffffffffffffffffffffffffffffffffff169050816000806101000a81548173ffffffffffffffffffffffffffffffffffffffff021916908373ffffffffffffffffffffffffffffffffffffffff1602179055508173ffffffffffffffffffffffffffffffffffffffff168173ffffffffffffffffffffffffffffffffffffffff167f8be0079c531659141344cd1fd0a4f28419497f9722a3daafe3b4186f6b6457e060405160405180910390a35050565b6060600060028360026119e891906120b6565b6119f29190612492565b67ffffffffffffffff811115611a0b57611a0a612a1a565b5b6040519080825280601f01601f191660200182016040528015611a3d5781602001600182028036833780820191505090505b5090507f300000000000000000000000000000000000000000000000000000000000000081600081518110611a7557611a74612a49565b5b60200101907effffffffffffffffffffffffffffffffffffffffffffffffffffffffffffff1916908160001a9053507f780000000000000000000000000000000000000000000000000000000000000081600181518110611ad957611ad8612a49565b5b60200101907effffffffffffffffffffffffffffffffffffffffffffffffffffffffffffff1916908160001a90535060006001846002611b1991906120b6565b611b239190612492565b90505b6001811115611bc3577f3031323334353637383961626364656600000000000000000000000000000000600f861660108110611b6557611b64612a49565b5b1a60f81b828281518110611b7c57611b7b612a49565b5b60200101907effffffffffffffffffffffffffffffffffffffffffffffffffffffffffffff1916908160001a905350600485901c945080611bbc90612a78565b9050611b26565b5060008414611c07576040517f08c379a0000000000000000000000000000000000000000000000000000000008152600401611bfe90612aee565b60405180910390fd5b8091505092915050565b600073ffffffffffffffffffffffffffffffffffffffff82169050919050565b6000611c3c82611c11565b9050919050565b611c4c81611c31565b82525050565b6000819050919050565b611c6581611c52565b82525050565b6000604082019050611c806000830185611c43565b611c8d6020830184611c5c565b9392505050565b600080fd5b60007fffffffff0000000000000000000000000000000000000000000000000000000082169050919050565b611cce81611c99565b8114611cd957600080fd5b50565b600081359050611ceb81611cc5565b92915050565b600060208284031215611d0757611d06611c94565b5b6000611d1584828501611cdc565b91505092915050565b60008115159050919050565b611d3381611d1e565b82525050565b6000602082019050611d4e6000830184611d2a565b92915050565b611d5d81611c52565b8114611d6857600080fd5b50565b600081359050611d7a81611d54565b92915050565b600060208284031215611d9657611d95611c94565b5b6000611da484828501611d6b565b91505092915050565b611db681611d1e565b8114611dc157600080fd5b50565b600081359050611dd381611dad565b92915050565b600060208284031215611def57611dee611c94565b5b6000611dfd84828501611dc4565b91505092915050565b6000819050919050565b611e1981611e06565b8114611e2457600080fd5b50565b600081359050611e3681611e10565b92915050565b600060208284031215611e5257611e51611c94565b5b6000611e6084828501611e27565b91505092915050565b611e7281611e06565b82525050565b6000602082019050611e8d6000830184611e69565b92915050565b6000611e9e82611c11565b9050919050565b611eae81611e93565b8114611eb957600080fd5b50565b600081359050611ecb81611ea5565b92915050565b600060208284031215611ee757611ee6611c94565b5b6000611ef584828501611ebc565b91505092915050565b611f0781611c31565b8114611f1257600080fd5b50565b600081359050611f2481611efe565b92915050565b60008060408385031215611f4157611f40611c94565b5b6000611f4f85828601611e27565b9250506020611f6085828601611f15565b9150509250929050565b6000602082019050611f7f6000830184611c5c565b92915050565b60008060408385031215611f9c57611f9b611c94565b5b6000611faa85828601611d6b565b9250506020611fbb85828601611d6b565b9150509250929050565b6000819050919050565b6000611fea611fe5611fe084611c11565b611fc5565b611c11565b9050919050565b6000611ffc82611fcf565b9050919050565b600061200e82611ff1565b9050919050565b61201e81612003565b82525050565b60006020820190506120396000830184612015565b92915050565b60006020828403121561205557612054611c94565b5b600061206384828501611f15565b91505092915050565b60006020820190506120816000830184611c43565b92915050565b7f4e487b7100000000000000000000000000000000000000000000000000000000600052601160045260246000fd5b60006120c182611c52565b91506120cc83611c52565b9250817fffffffffffffffffffffffffffffffffffffffffffffffffffffffffffffffff048311821515161561210557612104612087565b5b828202905092915050565b600082825260208201905092915050565b7f64697361626c6564000000000000000000000000000000000000000000000000600082015250565b6000612157600883612110565b915061216282612121565b602082019050919050565b600060208201905081810360008301526121868161214a565b9050919050565b60008151905061219c81611d54565b92915050565b6000602082840312156121b8576121b7611c94565b5b60006121c68482850161218d565b91505092915050565b7f6472790000000000000000000000000000000000000000000000000000000000600082015250565b6000612205600383612110565b9150612210826121cf565b602082019050919050565b60006020820190508181036000830152612234816121f8565b9050919050565b600061224682611ff1565b9050919050565b6122568161223b565b82525050565b6000602082019050612271600083018461224d565b92915050565b7f6c696d6974000000000000000000000000000000000000000000000000000000600082015250565b60006122ad600583612110565b91506122b882612277565b602082019050919050565b600060208201905081810360008301526122dc816122a0565b9050919050565b7f7573656400000000000000000000000000000000000000000000000000000000600082015250565b6000612319600483612110565b9150612324826122e3565b602082019050919050565b600060208201905081810360008301526123488161230c565b9050919050565b7f74696d656f757400000000000000000000000000000000000000000000000000600082015250565b6000612385600783612110565b91506123908261234f565b602082019050919050565b600060208201905081810360008301526123b481612378565b9050919050565b60006040820190506123d0600083018561224d565b6123dd6020830184611c5c565b9392505050565b6000815190506123f381611dad565b92915050565b60006020828403121561240f5761240e611c94565b5b600061241d848285016123e4565b91505092915050565b7f73656e64206661696c0000000000000000000000000000000000000000000000600082015250565b600061245c600983612110565b915061246782612426565b602082019050919050565b6000602082019050818103600083015261248b8161244f565b9050919050565b600061249d82611c52565b91506124a883611c52565b9250827fffffffffffffffffffffffffffffffffffffffffffffffffffffffffffffffff038211156124dd576124dc612087565b5b828201905092915050565b7f416363657373436f6e74726f6c3a2063616e206f6e6c792072656e6f756e636560008201527f20726f6c657320666f722073656c660000000000000000000000000000000000602082015250565b6000612544602f83612110565b915061254f826124e8565b604082019050919050565b6000602082019050818103600083015261257381612537565b9050919050565b7f4f776e61626c653a2063616c6c6572206973206e6f7420746865206f776e6572600082015250565b60006125b0602083612110565b91506125bb8261257a565b602082019050919050565b600060208201905081810360008301526125df816125a3565b9050919050565b7f7472616e73666572206661696c65640000000000000000000000000000000000600082015250565b600061261c600f83612110565b9150612627826125e6565b602082019050919050565b6000602082019050818103600083015261264b8161260f565b9050919050565b60008160011c9050919050565b6000808291508390505b60018511156126a95780860481111561268557612684612087565b5b60018516156126945780820291505b80810290506126a285612652565b9450612669565b94509492505050565b6000826126c2576001905061277e565b816126d0576000905061277e565b81600181146126e657600281146126f05761271f565b600191505061277e565b60ff84111561270257612701612087565b5b8360020a91508482111561271957612718612087565b5b5061277e565b5060208310610133831016604e8410600b84101617156127545782820a90508381111561274f5761274e612087565b5b61277e565b612761848484600161265f565b9250905081840481111561277857612777612087565b5b81810290505b9392505050565b600061279082611c52565b915061279b83611c52565b92506127c87fffffffffffffffffffffffffffffffffffffffffffffffffffffffffffffffff84846126b2565b905092915050565b7f4f776e61626c653a206e6577206f776e657220697320746865207a65726f206160008201527f6464726573730000000000000000000000000000000000000000000000000000602082015250565b600061282c602683612110565b9150612837826127d0565b604082019050919050565b6000602082019050818103600083015261285b8161281f565b9050919050565b600081905092915050565b7f416363657373436f6e74726f6c3a206163636f756e7420000000000000000000600082015250565b60006128a3601783612862565b91506128ae8261286d565b601782019050919050565b600081519050919050565b60005b838110156128e25780820151818401526020810190506128c7565b838111156128f1576000848401525b50505050565b6000612902826128b9565b61290c8185612862565b935061291c8185602086016128c4565b80840191505092915050565b7f206973206d697373696e6720726f6c6520000000000000000000000000000000600082015250565b600061295e601183612862565b915061296982612928565b601182019050919050565b600061297f82612896565b915061298b82856128f7565b915061299682612951565b91506129a282846128f7565b91508190509392505050565b6000601f19601f8301169050919050565b60006129ca826128b9565b6129d48185612110565b93506129e48185602086016128c4565b6129ed816129ae565b840191505092915050565b60006020820190508181036000830152612a1281846129bf565b905092915050565b7f4e487b7100000000000000000000000000000000000000000000000000000000600052604160045260246000fd5b7f4e487b7100000000000000000000000000000000000000000000000000000000600052603260045260246000fd5b6000612a8382611c52565b91506000821415612a9757612a96612087565b5b600182039050919050565b7f537472696e67733a20686578206c656e67746820696e73756666696369656e74600082015250565b6000612ad8602083612110565b9150612ae382612aa2565b602082019050919050565b60006020820190508181036000830152612b0781612acb565b905091905056fea264697066735822122073f70e0fc4711b701f0fed2cff4e74520fe04bec4fe2fd1cf68b0ffca64e457564736f6c63430008090033",
    "linkReferences": {},
    "deployedLinkReferences": {}
}